{
  "_format": "hh-sol-artifact-1",
  "contractName": "CollectionContract",
  "sourceName": "contracts/CollectionContract.sol",
  "abi": [
    {
      "inputs": [
        {
          "internalType": "string",
          "name": "_name",
          "type": "string"
        },
        {
          "internalType": "string",
          "name": "_symbol",
          "type": "string"
        },
        {
          "internalType": "string",
          "name": "_uri",
          "type": "string"
        }
      ],
      "stateMutability": "nonpayable",
      "type": "constructor"
    },
    {
      "anonymous": false,
      "inputs": [
        {
          "indexed": true,
          "internalType": "address",
          "name": "account",
          "type": "address"
        },
        {
          "indexed": true,
          "internalType": "address",
          "name": "operator",
          "type": "address"
        },
        {
          "indexed": false,
          "internalType": "bool",
          "name": "approved",
          "type": "bool"
        }
      ],
      "name": "ApprovalForAll",
      "type": "event"
    },
    {
      "anonymous": false,
      "inputs": [
        {
          "indexed": true,
          "internalType": "address",
          "name": "previousOwner",
          "type": "address"
        },
        {
          "indexed": true,
          "internalType": "address",
          "name": "newOwner",
          "type": "address"
        }
      ],
      "name": "OwnershipTransferred",
      "type": "event"
    },
    {
      "anonymous": false,
      "inputs": [
        {
          "indexed": true,
          "internalType": "address",
          "name": "operator",
          "type": "address"
        },
        {
          "indexed": true,
          "internalType": "address",
          "name": "from",
          "type": "address"
        },
        {
          "indexed": true,
          "internalType": "address",
          "name": "to",
          "type": "address"
        },
        {
          "indexed": false,
          "internalType": "uint256[]",
          "name": "ids",
          "type": "uint256[]"
        },
        {
          "indexed": false,
          "internalType": "uint256[]",
          "name": "values",
          "type": "uint256[]"
        }
      ],
      "name": "TransferBatch",
      "type": "event"
    },
    {
      "anonymous": false,
      "inputs": [
        {
          "indexed": true,
          "internalType": "address",
          "name": "operator",
          "type": "address"
        },
        {
          "indexed": true,
          "internalType": "address",
          "name": "from",
          "type": "address"
        },
        {
          "indexed": true,
          "internalType": "address",
          "name": "to",
          "type": "address"
        },
        {
          "indexed": false,
          "internalType": "uint256",
          "name": "id",
          "type": "uint256"
        },
        {
          "indexed": false,
          "internalType": "uint256",
          "name": "value",
          "type": "uint256"
        }
      ],
      "name": "TransferSingle",
      "type": "event"
    },
    {
      "anonymous": false,
      "inputs": [
        {
          "indexed": false,
          "internalType": "string",
          "name": "value",
          "type": "string"
        },
        {
          "indexed": true,
          "internalType": "uint256",
          "name": "id",
          "type": "uint256"
        }
      ],
      "name": "URI",
      "type": "event"
    },
    {
      "inputs": [
        {
          "internalType": "address",
          "name": "account",
          "type": "address"
        },
        {
          "internalType": "uint256",
          "name": "id",
          "type": "uint256"
        }
      ],
      "name": "balanceOf",
      "outputs": [
        {
          "internalType": "uint256",
          "name": "",
          "type": "uint256"
        }
      ],
      "stateMutability": "view",
      "type": "function"
    },
    {
      "inputs": [
        {
          "internalType": "address[]",
          "name": "accounts",
          "type": "address[]"
        },
        {
          "internalType": "uint256[]",
          "name": "ids",
          "type": "uint256[]"
        }
      ],
      "name": "balanceOfBatch",
      "outputs": [
        {
          "internalType": "uint256[]",
          "name": "",
          "type": "uint256[]"
        }
      ],
      "stateMutability": "view",
      "type": "function"
    },
    {
      "inputs": [
        {
          "internalType": "address",
          "name": "owner",
          "type": "address"
        }
      ],
      "name": "getOwnedTokens",
      "outputs": [
        {
          "internalType": "uint256[]",
          "name": "",
          "type": "uint256[]"
        },
        {
          "internalType": "uint256[]",
          "name": "",
          "type": "uint256[]"
        }
      ],
      "stateMutability": "view",
      "type": "function"
    },
    {
      "inputs": [],
      "name": "getTokenIds",
      "outputs": [
        {
          "internalType": "uint256[]",
          "name": "",
          "type": "uint256[]"
        }
      ],
      "stateMutability": "view",
      "type": "function"
    },
    {
      "inputs": [
        {
          "internalType": "uint256",
          "name": "tokenId",
          "type": "uint256"
        }
      ],
      "name": "getTokenURI",
      "outputs": [
        {
          "internalType": "string",
          "name": "",
          "type": "string"
        }
      ],
      "stateMutability": "view",
      "type": "function"
    },
    {
      "inputs": [
        {
          "internalType": "address",
          "name": "account",
          "type": "address"
        },
        {
          "internalType": "address",
          "name": "operator",
          "type": "address"
        }
      ],
      "name": "isApprovedForAll",
      "outputs": [
        {
          "internalType": "bool",
          "name": "",
          "type": "bool"
        }
      ],
      "stateMutability": "view",
      "type": "function"
    },
    {
      "inputs": [
        {
          "internalType": "address",
          "name": "to",
          "type": "address"
        },
        {
          "internalType": "uint256",
          "name": "amount",
          "type": "uint256"
        },
        {
          "internalType": "string",
          "name": "uri",
          "type": "string"
        }
      ],
      "name": "mintToken",
      "outputs": [],
      "stateMutability": "nonpayable",
      "type": "function"
    },
    {
      "inputs": [],
      "name": "name",
      "outputs": [
        {
          "internalType": "string",
          "name": "",
          "type": "string"
        }
      ],
      "stateMutability": "view",
      "type": "function"
    },
    {
      "inputs": [],
      "name": "owner",
      "outputs": [
        {
          "internalType": "address",
          "name": "",
          "type": "address"
        }
      ],
      "stateMutability": "view",
      "type": "function"
    },
    {
      "inputs": [],
      "name": "renounceOwnership",
      "outputs": [],
      "stateMutability": "nonpayable",
      "type": "function"
    },
    {
      "inputs": [
        {
          "internalType": "address",
          "name": "from",
          "type": "address"
        },
        {
          "internalType": "address",
          "name": "to",
          "type": "address"
        },
        {
          "internalType": "uint256[]",
          "name": "ids",
          "type": "uint256[]"
        },
        {
          "internalType": "uint256[]",
          "name": "amounts",
          "type": "uint256[]"
        },
        {
          "internalType": "bytes",
          "name": "data",
          "type": "bytes"
        }
      ],
      "name": "safeBatchTransferFrom",
      "outputs": [],
      "stateMutability": "nonpayable",
      "type": "function"
    },
    {
      "inputs": [
        {
          "internalType": "address",
          "name": "from",
          "type": "address"
        },
        {
          "internalType": "address",
          "name": "to",
          "type": "address"
        },
        {
          "internalType": "uint256",
          "name": "id",
          "type": "uint256"
        },
        {
          "internalType": "uint256",
          "name": "amount",
          "type": "uint256"
        },
        {
          "internalType": "bytes",
          "name": "data",
          "type": "bytes"
        }
      ],
      "name": "safeTransferFrom",
      "outputs": [],
      "stateMutability": "nonpayable",
      "type": "function"
    },
    {
      "inputs": [
        {
          "internalType": "address",
          "name": "operator",
          "type": "address"
        },
        {
          "internalType": "bool",
          "name": "approved",
          "type": "bool"
        }
      ],
      "name": "setApprovalForAll",
      "outputs": [],
      "stateMutability": "nonpayable",
      "type": "function"
    },
    {
      "inputs": [
        {
          "internalType": "bytes4",
          "name": "interfaceId",
          "type": "bytes4"
        }
      ],
      "name": "supportsInterface",
      "outputs": [
        {
          "internalType": "bool",
          "name": "",
          "type": "bool"
        }
      ],
      "stateMutability": "view",
      "type": "function"
    },
    {
      "inputs": [],
      "name": "symbol",
      "outputs": [
        {
          "internalType": "string",
          "name": "",
          "type": "string"
        }
      ],
      "stateMutability": "view",
      "type": "function"
    },
    {
      "inputs": [
        {
          "internalType": "address",
          "name": "newOwner",
          "type": "address"
        }
      ],
      "name": "transferOwnership",
      "outputs": [],
      "stateMutability": "nonpayable",
      "type": "function"
    },
    {
      "inputs": [
        {
          "internalType": "uint256",
          "name": "",
          "type": "uint256"
        }
      ],
      "name": "uri",
      "outputs": [
        {
          "internalType": "string",
          "name": "",
          "type": "string"
        }
      ],
      "stateMutability": "view",
      "type": "function"
    }
  ],
  "bytecode": "0x608060405260006007553480156200001657600080fd5b50604051620039eb380380620039eb83398181016040528101906200003c919062000312565b806200004e816200009c60201b60201c565b506200006f62000063620000b160201b60201c565b620000b960201b60201c565b826004908162000080919062000616565b50816005908162000092919062000616565b50505050620006fd565b8060029081620000ad919062000616565b5050565b600033905090565b6000600360009054906101000a900473ffffffffffffffffffffffffffffffffffffffff16905081600360006101000a81548173ffffffffffffffffffffffffffffffffffffffff021916908373ffffffffffffffffffffffffffffffffffffffff1602179055508173ffffffffffffffffffffffffffffffffffffffff168173ffffffffffffffffffffffffffffffffffffffff167f8be0079c531659141344cd1fd0a4f28419497f9722a3daafe3b4186f6b6457e060405160405180910390a35050565b6000604051905090565b600080fd5b600080fd5b600080fd5b600080fd5b6000601f19601f8301169050919050565b7f4e487b7100000000000000000000000000000000000000000000000000000000600052604160045260246000fd5b620001e8826200019d565b810181811067ffffffffffffffff821117156200020a5762000209620001ae565b5b80604052505050565b60006200021f6200017f565b90506200022d8282620001dd565b919050565b600067ffffffffffffffff82111562000250576200024f620001ae565b5b6200025b826200019d565b9050602081019050919050565b60005b83811015620002885780820151818401526020810190506200026b565b60008484015250505050565b6000620002ab620002a58462000232565b62000213565b905082815260208101848484011115620002ca57620002c962000198565b5b620002d784828562000268565b509392505050565b600082601f830112620002f757620002f662000193565b5b81516200030984826020860162000294565b91505092915050565b6000806000606084860312156200032e576200032d62000189565b5b600084015167ffffffffffffffff8111156200034f576200034e6200018e565b5b6200035d86828701620002df565b935050602084015167ffffffffffffffff8111156200038157620003806200018e565b5b6200038f86828701620002df565b925050604084015167ffffffffffffffff811115620003b357620003b26200018e565b5b620003c186828701620002df565b9150509250925092565b600081519050919050565b7f4e487b7100000000000000000000000000000000000000000000000000000000600052602260045260246000fd5b600060028204905060018216806200041e57607f821691505b602082108103620004345762000433620003d6565b5b50919050565b60008190508160005260206000209050919050565b60006020601f8301049050919050565b600082821b905092915050565b6000600883026200049e7fffffffffffffffffffffffffffffffffffffffffffffffffffffffffffffffff826200045f565b620004aa86836200045f565b95508019841693508086168417925050509392505050565b6000819050919050565b6000819050919050565b6000620004f7620004f1620004eb84620004c2565b620004cc565b620004c2565b9050919050565b6000819050919050565b6200051383620004d6565b6200052b6200052282620004fe565b8484546200046c565b825550505050565b600090565b6200054262000533565b6200054f81848462000508565b505050565b5b8181101562000577576200056b60008262000538565b60018101905062000555565b5050565b601f821115620005c65762000590816200043a565b6200059b846200044f565b81016020851015620005ab578190505b620005c3620005ba856200044f565b83018262000554565b50505b505050565b600082821c905092915050565b6000620005eb60001984600802620005cb565b1980831691505092915050565b6000620006068383620005d8565b9150826002028217905092915050565b6200062182620003cb565b67ffffffffffffffff8111156200063d576200063c620001ae565b5b62000649825462000405565b620006568282856200057b565b600060209050601f8311600181146200068e576000841562000679578287015190505b620006858582620005f8565b865550620006f5565b601f1984166200069e866200043a565b60005b82811015620006c857848901518255600182019150602085019450602081019050620006a1565b86831015620006e85784890151620006e4601f891682620005d8565b8355505b6001600288020188555050505b505050505050565b6132de806200070d6000396000f3fe608060405234801561001057600080fd5b506004361061010a5760003560e01c8063715018a6116100a2578063d9d6165511610071578063d9d61655146102b9578063e985e9c5146102ea578063f242432a1461031a578063f2fde38b14610336578063f76e8ba9146103525761010a565b8063715018a6146102575780638da5cb5b1461026157806395d89b411461027f578063a22cb4651461029d5761010a565b80632eb2c2d6116100de5780632eb2c2d6146101bd5780633bb3a24d146101d95780634e1273f41461020957806367f718a9146102395761010a565b8062fdd58e1461010f57806301ffc9a71461013f57806306fdde031461016f5780630e89341c1461018d575b600080fd5b61012960048036038101906101249190611c79565b61036e565b6040516101369190611cc8565b60405180910390f35b61015960048036038101906101549190611d3b565b610436565b6040516101669190611d83565b60405180910390f35b610177610518565b6040516101849190611e2e565b60405180910390f35b6101a760048036038101906101a29190611e50565b6105a6565b6040516101b49190611e2e565b60405180910390f35b6101d760048036038101906101d2919061207a565b61063a565b005b6101f360048036038101906101ee9190611e50565b6106db565b6040516102009190611e2e565b60405180910390f35b610223600480360381019061021e919061220c565b610780565b6040516102309190612342565b60405180910390f35b610241610893565b60405161024e9190612342565b60405180910390f35b61025f6108eb565b005b6102696108ff565b6040516102769190612373565b60405180910390f35b610287610929565b6040516102949190611e2e565b60405180910390f35b6102b760048036038101906102b291906123ba565b6109b7565b005b6102d360048036038101906102ce91906123fa565b6109cd565b6040516102e1929190612427565b60405180910390f35b61030460048036038101906102ff919061245e565b610a94565b6040516103119190611d83565b60405180910390f35b610334600480360381019061032f919061249e565b610b28565b005b610350600480360381019061034b91906123fa565b610bc9565b005b61036c600480360381019061036791906125d6565b610c4c565b005b60008073ffffffffffffffffffffffffffffffffffffffff168373ffffffffffffffffffffffffffffffffffffffff16036103de576040517f08c379a00000000000000000000000000000000000000000000000000000000081526004016103d5906126b7565b60405180910390fd5b60008083815260200190815260200160002060008473ffffffffffffffffffffffffffffffffffffffff1673ffffffffffffffffffffffffffffffffffffffff16815260200190815260200160002054905092915050565b60007fd9b67a26000000000000000000000000000000000000000000000000000000007bffffffffffffffffffffffffffffffffffffffffffffffffffffffff1916827bffffffffffffffffffffffffffffffffffffffffffffffffffffffff1916148061050157507f0e89341c000000000000000000000000000000000000000000000000000000007bffffffffffffffffffffffffffffffffffffffffffffffffffffffff1916827bffffffffffffffffffffffffffffffffffffffffffffffffffffffff1916145b80610511575061051082610cc9565b5b9050919050565b6004805461052590612706565b80601f016020809104026020016040519081016040528092919081815260200182805461055190612706565b801561059e5780601f106105735761010080835404028352916020019161059e565b820191906000526020600020905b81548152906001019060200180831161058157829003601f168201915b505050505081565b6060600280546105b590612706565b80601f01602080910402602001604051908101604052809291908181526020018280546105e190612706565b801561062e5780601f106106035761010080835404028352916020019161062e565b820191906000526020600020905b81548152906001019060200180831161061157829003601f168201915b50505050509050919050565b610642610d33565b73ffffffffffffffffffffffffffffffffffffffff168573ffffffffffffffffffffffffffffffffffffffff161480610688575061068785610682610d33565b610a94565b5b6106c7576040517f08c379a00000000000000000000000000000000000000000000000000000000081526004016106be906127a9565b60405180910390fd5b6106d48585858585610d3b565b5050505050565b60606006600083815260200190815260200160002080546106fb90612706565b80601f016020809104026020016040519081016040528092919081815260200182805461072790612706565b80156107745780601f1061074957610100808354040283529160200191610774565b820191906000526020600020905b81548152906001019060200180831161075757829003601f168201915b50505050509050919050565b606081518351146107c6576040517f08c379a00000000000000000000000000000000000000000000000000000000081526004016107bd9061283b565b60405180910390fd5b6000835167ffffffffffffffff8111156107e3576107e2611e82565b5b6040519080825280602002602001820160405280156108115781602001602082028036833780820191505090505b50905060005b84518110156108885761085e8582815181106108365761083561285b565b5b60200260200101518583815181106108515761085061285b565b5b602002602001015161036e565b8282815181106108715761087061285b565b5b602002602001018181525050806001019050610817565b508091505092915050565b606060088054806020026020016040519081016040528092919081815260200182805480156108e157602002820191906000526020600020905b8154815260200190600101908083116108cd575b5050505050905090565b6108f3611056565b6108fd60006110d4565b565b6000600360009054906101000a900473ffffffffffffffffffffffffffffffffffffffff16905090565b6005805461093690612706565b80601f016020809104026020016040519081016040528092919081815260200182805461096290612706565b80156109af5780601f10610984576101008083540402835291602001916109af565b820191906000526020600020905b81548152906001019060200180831161099257829003601f168201915b505050505081565b6109c96109c2610d33565b838361119a565b5050565b60608060006109da610893565b90506000815167ffffffffffffffff8111156109f9576109f8611e82565b5b604051908082528060200260200182016040528015610a275781602001602082028036833780820191505090505b50905060005b8251811015610a8657610a5a86848381518110610a4d57610a4c61285b565b5b602002602001015161036e565b828281518110610a6d57610a6c61285b565b5b6020026020010181815250508080600101915050610a2d565b508181935093505050915091565b6000600160008473ffffffffffffffffffffffffffffffffffffffff1673ffffffffffffffffffffffffffffffffffffffff16815260200190815260200160002060008373ffffffffffffffffffffffffffffffffffffffff1673ffffffffffffffffffffffffffffffffffffffff16815260200190815260200160002060009054906101000a900460ff16905092915050565b610b30610d33565b73ffffffffffffffffffffffffffffffffffffffff168573ffffffffffffffffffffffffffffffffffffffff161480610b765750610b7585610b70610d33565b610a94565b5b610bb5576040517f08c379a0000000000000000000000000000000000000000000000000000000008152600401610bac906127a9565b60405180910390fd5b610bc28585858585611306565b5050505050565b610bd1611056565b600073ffffffffffffffffffffffffffffffffffffffff168173ffffffffffffffffffffffffffffffffffffffff1603610c40576040517f08c379a0000000000000000000000000000000000000000000000000000000008152600401610c37906128fc565b60405180910390fd5b610c49816110d4565b50565b610c54611056565b600160076000828254610c67919061294b565b9250508190555060006007549050610c90848285604051806020016040528060008152506115a1565b610c9a8183611751565b600881908060018154018082558091505060019003906000526020600020016000909190919091505550505050565b60007f01ffc9a7000000000000000000000000000000000000000000000000000000007bffffffffffffffffffffffffffffffffffffffffffffffffffffffff1916827bffffffffffffffffffffffffffffffffffffffffffffffffffffffff1916149050919050565b600033905090565b8151835114610d7f576040517f08c379a0000000000000000000000000000000000000000000000000000000008152600401610d76906129f1565b60405180910390fd5b600073ffffffffffffffffffffffffffffffffffffffff168473ffffffffffffffffffffffffffffffffffffffff1603610dee576040517f08c379a0000000000000000000000000000000000000000000000000000000008152600401610de590612a83565b60405180910390fd5b6000610df8610d33565b9050610e08818787878787611776565b60005b8451811015610fb3576000858281518110610e2957610e2861285b565b5b602002602001015190506000858381518110610e4857610e4761285b565b5b60200260200101519050600080600084815260200190815260200160002060008b73ffffffffffffffffffffffffffffffffffffffff1673ffffffffffffffffffffffffffffffffffffffff16815260200190815260200160002054905081811015610ee9576040517f08c379a0000000000000000000000000000000000000000000000000000000008152600401610ee090612b15565b60405180910390fd5b81810360008085815260200190815260200160002060008c73ffffffffffffffffffffffffffffffffffffffff1673ffffffffffffffffffffffffffffffffffffffff168152602001908152602001600020819055508160008085815260200190815260200160002060008b73ffffffffffffffffffffffffffffffffffffffff1673ffffffffffffffffffffffffffffffffffffffff1681526020019081526020016000206000828254610f9e919061294b565b92505081905550505050806001019050610e0b565b508473ffffffffffffffffffffffffffffffffffffffff168673ffffffffffffffffffffffffffffffffffffffff168273ffffffffffffffffffffffffffffffffffffffff167f4a39dc06d4c0dbc64b70af90fd698a233a518aa5d07e595d983b8c0526c8f7fb878760405161102a929190612427565b60405180910390a461104081878787878761177e565b61104e818787878787611786565b505050505050565b61105e610d33565b73ffffffffffffffffffffffffffffffffffffffff1661107c6108ff565b73ffffffffffffffffffffffffffffffffffffffff16146110d2576040517f08c379a00000000000000000000000000000000000000000000000000000000081526004016110c990612b81565b60405180910390fd5b565b6000600360009054906101000a900473ffffffffffffffffffffffffffffffffffffffff16905081600360006101000a81548173ffffffffffffffffffffffffffffffffffffffff021916908373ffffffffffffffffffffffffffffffffffffffff1602179055508173ffffffffffffffffffffffffffffffffffffffff168173ffffffffffffffffffffffffffffffffffffffff167f8be0079c531659141344cd1fd0a4f28419497f9722a3daafe3b4186f6b6457e060405160405180910390a35050565b8173ffffffffffffffffffffffffffffffffffffffff168373ffffffffffffffffffffffffffffffffffffffff1603611208576040517f08c379a00000000000000000000000000000000000000000000000000000000081526004016111ff90612c13565b60405180910390fd5b80600160008573ffffffffffffffffffffffffffffffffffffffff1673ffffffffffffffffffffffffffffffffffffffff16815260200190815260200160002060008473ffffffffffffffffffffffffffffffffffffffff1673ffffffffffffffffffffffffffffffffffffffff16815260200190815260200160002060006101000a81548160ff0219169083151502179055508173ffffffffffffffffffffffffffffffffffffffff168373ffffffffffffffffffffffffffffffffffffffff167f17307eab39ab6107e8899845ad3d59bd9653f200f220920489ca2b5937696c31836040516112f99190611d83565b60405180910390a3505050565b600073ffffffffffffffffffffffffffffffffffffffff168473ffffffffffffffffffffffffffffffffffffffff1603611375576040517f08c379a000000000000000000000000000000000000000000000000000000000815260040161136c90612a83565b60405180910390fd5b600061137f610d33565b9050600061138c8561195d565b905060006113998561195d565b90506113a9838989858589611776565b600080600088815260200190815260200160002060008a73ffffffffffffffffffffffffffffffffffffffff1673ffffffffffffffffffffffffffffffffffffffff16815260200190815260200160002054905085811015611440576040517f08c379a000000000000000000000000000000000000000000000000000000000815260040161143790612b15565b60405180910390fd5b85810360008089815260200190815260200160002060008b73ffffffffffffffffffffffffffffffffffffffff1673ffffffffffffffffffffffffffffffffffffffff168152602001908152602001600020819055508560008089815260200190815260200160002060008a73ffffffffffffffffffffffffffffffffffffffff1673ffffffffffffffffffffffffffffffffffffffff16815260200190815260200160002060008282546114f5919061294b565b925050819055508773ffffffffffffffffffffffffffffffffffffffff168973ffffffffffffffffffffffffffffffffffffffff168573ffffffffffffffffffffffffffffffffffffffff167fc3d58168c5ae7397731d063d5bbf3d657854427343f4c083240f7aacaa2d0f628a8a604051611572929190612c33565b60405180910390a4611588848a8a86868a61177e565b611596848a8a8a8a8a6119d7565b505050505050505050565b600073ffffffffffffffffffffffffffffffffffffffff168473ffffffffffffffffffffffffffffffffffffffff1603611610576040517f08c379a000000000000000000000000000000000000000000000000000000000815260040161160790612cce565b60405180910390fd5b600061161a610d33565b905060006116278561195d565b905060006116348561195d565b905061164583600089858589611776565b8460008088815260200190815260200160002060008973ffffffffffffffffffffffffffffffffffffffff1673ffffffffffffffffffffffffffffffffffffffff16815260200190815260200160002060008282546116a4919061294b565b925050819055508673ffffffffffffffffffffffffffffffffffffffff16600073ffffffffffffffffffffffffffffffffffffffff168473ffffffffffffffffffffffffffffffffffffffff167fc3d58168c5ae7397731d063d5bbf3d657854427343f4c083240f7aacaa2d0f628989604051611722929190612c33565b60405180910390a46117398360008985858961177e565b611748836000898989896119d7565b50505050505050565b806006600084815260200190815260200160002090816117719190612e9a565b505050565b505050505050565b505050505050565b6117a58473ffffffffffffffffffffffffffffffffffffffff16611bae565b15611955578373ffffffffffffffffffffffffffffffffffffffff1663bc197c8187878686866040518663ffffffff1660e01b81526004016117eb959493929190612fc1565b6020604051808303816000875af192505050801561182757506040513d601f19601f82011682018060405250810190611824919061303e565b60015b6118cc57611833613078565b806308c379a00361188f575061184761309a565b806118525750611891565b806040517f08c379a00000000000000000000000000000000000000000000000000000000081526004016118869190611e2e565b60405180910390fd5b505b6040517f08c379a00000000000000000000000000000000000000000000000000000000081526004016118c39061319c565b60405180910390fd5b63bc197c8160e01b7bffffffffffffffffffffffffffffffffffffffffffffffffffffffff1916817bffffffffffffffffffffffffffffffffffffffffffffffffffffffff191614611953576040517f08c379a000000000000000000000000000000000000000000000000000000000815260040161194a9061322e565b60405180910390fd5b505b505050505050565b60606000600167ffffffffffffffff81111561197c5761197b611e82565b5b6040519080825280602002602001820160405280156119aa5781602001602082028036833780820191505090505b50905082816000815181106119c2576119c161285b565b5b60200260200101818152505080915050919050565b6119f68473ffffffffffffffffffffffffffffffffffffffff16611bae565b15611ba6578373ffffffffffffffffffffffffffffffffffffffff1663f23a6e6187878686866040518663ffffffff1660e01b8152600401611a3c95949392919061324e565b6020604051808303816000875af1925050508015611a7857506040513d601f19601f82011682018060405250810190611a75919061303e565b60015b611b1d57611a84613078565b806308c379a003611ae05750611a9861309a565b80611aa35750611ae2565b806040517f08c379a0000000000000000000000000000000000000000000000000000000008152600401611ad79190611e2e565b60405180910390fd5b505b6040517f08c379a0000000000000000000000000000000000000000000000000000000008152600401611b149061319c565b60405180910390fd5b63f23a6e6160e01b7bffffffffffffffffffffffffffffffffffffffffffffffffffffffff1916817bffffffffffffffffffffffffffffffffffffffffffffffffffffffff191614611ba4576040517f08c379a0000000000000000000000000000000000000000000000000000000008152600401611b9b9061322e565b60405180910390fd5b505b505050505050565b6000808273ffffffffffffffffffffffffffffffffffffffff163b119050919050565b6000604051905090565b600080fd5b600080fd5b600073ffffffffffffffffffffffffffffffffffffffff82169050919050565b6000611c1082611be5565b9050919050565b611c2081611c05565b8114611c2b57600080fd5b50565b600081359050611c3d81611c17565b92915050565b6000819050919050565b611c5681611c43565b8114611c6157600080fd5b50565b600081359050611c7381611c4d565b92915050565b60008060408385031215611c9057611c8f611bdb565b5b6000611c9e85828601611c2e565b9250506020611caf85828601611c64565b9150509250929050565b611cc281611c43565b82525050565b6000602082019050611cdd6000830184611cb9565b92915050565b60007fffffffff0000000000000000000000000000000000000000000000000000000082169050919050565b611d1881611ce3565b8114611d2357600080fd5b50565b600081359050611d3581611d0f565b92915050565b600060208284031215611d5157611d50611bdb565b5b6000611d5f84828501611d26565b91505092915050565b60008115159050919050565b611d7d81611d68565b82525050565b6000602082019050611d986000830184611d74565b92915050565b600081519050919050565b600082825260208201905092915050565b60005b83811015611dd8578082015181840152602081019050611dbd565b60008484015250505050565b6000601f19601f8301169050919050565b6000611e0082611d9e565b611e0a8185611da9565b9350611e1a818560208601611dba565b611e2381611de4565b840191505092915050565b60006020820190508181036000830152611e488184611df5565b905092915050565b600060208284031215611e6657611e65611bdb565b5b6000611e7484828501611c64565b91505092915050565b600080fd5b7f4e487b7100000000000000000000000000000000000000000000000000000000600052604160045260246000fd5b611eba82611de4565b810181811067ffffffffffffffff82111715611ed957611ed8611e82565b5b80604052505050565b6000611eec611bd1565b9050611ef88282611eb1565b919050565b600067ffffffffffffffff821115611f1857611f17611e82565b5b602082029050602081019050919050565b600080fd5b6000611f41611f3c84611efd565b611ee2565b90508083825260208201905060208402830185811115611f6457611f63611f29565b5b835b81811015611f8d5780611f798882611c64565b845260208401935050602081019050611f66565b5050509392505050565b600082601f830112611fac57611fab611e7d565b5b8135611fbc848260208601611f2e565b91505092915050565b600080fd5b600067ffffffffffffffff821115611fe557611fe4611e82565b5b611fee82611de4565b9050602081019050919050565b82818337600083830152505050565b600061201d61201884611fca565b611ee2565b90508281526020810184848401111561203957612038611fc5565b5b612044848285611ffb565b509392505050565b600082601f83011261206157612060611e7d565b5b813561207184826020860161200a565b91505092915050565b600080600080600060a0868803121561209657612095611bdb565b5b60006120a488828901611c2e565b95505060206120b588828901611c2e565b945050604086013567ffffffffffffffff8111156120d6576120d5611be0565b5b6120e288828901611f97565b935050606086013567ffffffffffffffff81111561210357612102611be0565b5b61210f88828901611f97565b925050608086013567ffffffffffffffff8111156121305761212f611be0565b5b61213c8882890161204c565b9150509295509295909350565b600067ffffffffffffffff82111561216457612163611e82565b5b602082029050602081019050919050565b600061218861218384612149565b611ee2565b905080838252602082019050602084028301858111156121ab576121aa611f29565b5b835b818110156121d457806121c08882611c2e565b8452602084019350506020810190506121ad565b5050509392505050565b600082601f8301126121f3576121f2611e7d565b5b8135612203848260208601612175565b91505092915050565b6000806040838503121561222357612222611bdb565b5b600083013567ffffffffffffffff81111561224157612240611be0565b5b61224d858286016121de565b925050602083013567ffffffffffffffff81111561226e5761226d611be0565b5b61227a85828601611f97565b9150509250929050565b600081519050919050565b600082825260208201905092915050565b6000819050602082019050919050565b6122b981611c43565b82525050565b60006122cb83836122b0565b60208301905092915050565b6000602082019050919050565b60006122ef82612284565b6122f9818561228f565b9350612304836122a0565b8060005b8381101561233557815161231c88826122bf565b9750612327836122d7565b925050600181019050612308565b5085935050505092915050565b6000602082019050818103600083015261235c81846122e4565b905092915050565b61236d81611c05565b82525050565b60006020820190506123886000830184612364565b92915050565b61239781611d68565b81146123a257600080fd5b50565b6000813590506123b48161238e565b92915050565b600080604083850312156123d1576123d0611bdb565b5b60006123df85828601611c2e565b92505060206123f0858286016123a5565b9150509250929050565b6000602082840312156124105761240f611bdb565b5b600061241e84828501611c2e565b91505092915050565b6000604082019050818103600083015261244181856122e4565b9050818103602083015261245581846122e4565b90509392505050565b6000806040838503121561247557612474611bdb565b5b600061248385828601611c2e565b925050602061249485828601611c2e565b9150509250929050565b600080600080600060a086880312156124ba576124b9611bdb565b5b60006124c888828901611c2e565b95505060206124d988828901611c2e565b94505060406124ea88828901611c64565b93505060606124fb88828901611c64565b925050608086013567ffffffffffffffff81111561251c5761251b611be0565b5b6125288882890161204c565b9150509295509295909350565b600067ffffffffffffffff8211156125505761254f611e82565b5b61255982611de4565b9050602081019050919050565b600061257961257484612535565b611ee2565b90508281526020810184848401111561259557612594611fc5565b5b6125a0848285611ffb565b509392505050565b600082601f8301126125bd576125bc611e7d565b5b81356125cd848260208601612566565b91505092915050565b6000806000606084860312156125ef576125ee611bdb565b5b60006125fd86828701611c2e565b935050602061260e86828701611c64565b925050604084013567ffffffffffffffff81111561262f5761262e611be0565b5b61263b868287016125a8565b9150509250925092565b7f455243313135353a2061646472657373207a65726f206973206e6f742061207660008201527f616c6964206f776e657200000000000000000000000000000000000000000000602082015250565b60006126a1602a83611da9565b91506126ac82612645565b604082019050919050565b600060208201905081810360008301526126d081612694565b9050919050565b7f4e487b7100000000000000000000000000000000000000000000000000000000600052602260045260246000fd5b6000600282049050600182168061271e57607f821691505b602082108103612731576127306126d7565b5b50919050565b7f455243313135353a2063616c6c6572206973206e6f7420746f6b656e206f776e60008201527f6572206f7220617070726f766564000000000000000000000000000000000000602082015250565b6000612793602e83611da9565b915061279e82612737565b604082019050919050565b600060208201905081810360008301526127c281612786565b9050919050565b7f455243313135353a206163636f756e747320616e6420696473206c656e67746860008201527f206d69736d617463680000000000000000000000000000000000000000000000602082015250565b6000612825602983611da9565b9150612830826127c9565b604082019050919050565b6000602082019050818103600083015261285481612818565b9050919050565b7f4e487b7100000000000000000000000000000000000000000000000000000000600052603260045260246000fd5b7f4f776e61626c653a206e6577206f776e657220697320746865207a65726f206160008201527f6464726573730000000000000000000000000000000000000000000000000000602082015250565b60006128e6602683611da9565b91506128f18261288a565b604082019050919050565b60006020820190508181036000830152612915816128d9565b9050919050565b7f4e487b7100000000000000000000000000000000000000000000000000000000600052601160045260246000fd5b600061295682611c43565b915061296183611c43565b92508282019050808211156129795761297861291c565b5b92915050565b7f455243313135353a2069647320616e6420616d6f756e7473206c656e6774682060008201527f6d69736d61746368000000000000000000000000000000000000000000000000602082015250565b60006129db602883611da9565b91506129e68261297f565b604082019050919050565b60006020820190508181036000830152612a0a816129ce565b9050919050565b7f455243313135353a207472616e7366657220746f20746865207a65726f20616460008201527f6472657373000000000000000000000000000000000000000000000000000000602082015250565b6000612a6d602583611da9565b9150612a7882612a11565b604082019050919050565b60006020820190508181036000830152612a9c81612a60565b9050919050565b7f455243313135353a20696e73756666696369656e742062616c616e636520666f60008201527f72207472616e7366657200000000000000000000000000000000000000000000602082015250565b6000612aff602a83611da9565b9150612b0a82612aa3565b604082019050919050565b60006020820190508181036000830152612b2e81612af2565b9050919050565b7f4f776e61626c653a2063616c6c6572206973206e6f7420746865206f776e6572600082015250565b6000612b6b602083611da9565b9150612b7682612b35565b602082019050919050565b60006020820190508181036000830152612b9a81612b5e565b9050919050565b7f455243313135353a2073657474696e6720617070726f76616c2073746174757360008201527f20666f722073656c660000000000000000000000000000000000000000000000602082015250565b6000612bfd602983611da9565b9150612c0882612ba1565b604082019050919050565b60006020820190508181036000830152612c2c81612bf0565b9050919050565b6000604082019050612c486000830185611cb9565b612c556020830184611cb9565b9392505050565b7f455243313135353a206d696e7420746f20746865207a65726f2061646472657360008201527f7300000000000000000000000000000000000000000000000000000000000000602082015250565b6000612cb8602183611da9565b9150612cc382612c5c565b604082019050919050565b60006020820190508181036000830152612ce781612cab565b9050919050565b60008190508160005260206000209050919050565b60006020601f8301049050919050565b600082821b905092915050565b600060088302612d507fffffffffffffffffffffffffffffffffffffffffffffffffffffffffffffffff82612d13565b612d5a8683612d13565b95508019841693508086168417925050509392505050565b6000819050919050565b6000612d97612d92612d8d84611c43565b612d72565b611c43565b9050919050565b6000819050919050565b612db183612d7c565b612dc5612dbd82612d9e565b848454612d20565b825550505050565b600090565b612dda612dcd565b612de5818484612da8565b505050565b5b81811015612e0957612dfe600082612dd2565b600181019050612deb565b5050565b601f821115612e4e57612e1f81612cee565b612e2884612d03565b81016020851015612e37578190505b612e4b612e4385612d03565b830182612dea565b50505b505050565b600082821c905092915050565b6000612e7160001984600802612e53565b1980831691505092915050565b6000612e8a8383612e60565b9150826002028217905092915050565b612ea382611d9e565b67ffffffffffffffff811115612ebc57612ebb611e82565b5b612ec68254612706565b612ed1828285612e0d565b600060209050601f831160018114612f045760008415612ef2578287015190505b612efc8582612e7e565b865550612f64565b601f198416612f1286612cee565b60005b82811015612f3a57848901518255600182019150602085019450602081019050612f15565b86831015612f575784890151612f53601f891682612e60565b8355505b6001600288020188555050505b505050505050565b600081519050919050565b600082825260208201905092915050565b6000612f9382612f6c565b612f9d8185612f77565b9350612fad818560208601611dba565b612fb681611de4565b840191505092915050565b600060a082019050612fd66000830188612364565b612fe36020830187612364565b8181036040830152612ff581866122e4565b9050818103606083015261300981856122e4565b9050818103608083015261301d8184612f88565b90509695505050505050565b60008151905061303881611d0f565b92915050565b60006020828403121561305457613053611bdb565b5b600061306284828501613029565b91505092915050565b60008160e01c9050919050565b600060033d11156130975760046000803e61309460005161306b565b90505b90565b600060443d10613127576130ac611bd1565b60043d036004823e80513d602482011167ffffffffffffffff821117156130d4575050613127565b808201805167ffffffffffffffff8111156130f25750505050613127565b80602083010160043d03850181111561310f575050505050613127565b61311e82602001850186611eb1565b82955050505050505b90565b7f455243313135353a207472616e7366657220746f206e6f6e2d4552433131353560008201527f526563656976657220696d706c656d656e746572000000000000000000000000602082015250565b6000613186603483611da9565b91506131918261312a565b604082019050919050565b600060208201905081810360008301526131b581613179565b9050919050565b7f455243313135353a204552433131353552656365697665722072656a6563746560008201527f6420746f6b656e73000000000000000000000000000000000000000000000000602082015250565b6000613218602883611da9565b9150613223826131bc565b604082019050919050565b600060208201905081810360008301526132478161320b565b9050919050565b600060a0820190506132636000830188612364565b6132706020830187612364565b61327d6040830186611cb9565b61328a6060830185611cb9565b818103608083015261329c8184612f88565b9050969550505050505056fea26469706673582212206131d4962210529dcea3e96e8923741c4c76eec0eaebfede5f57f41f968ad48f64736f6c63430008180033",
  "linkReferences": {},
  "deployedLinkReferences": {}
}