{
  "_format": "hh-sol-artifact-1",
  "contractName": "CollectionContract",
  "sourceName": "contracts/CollectionContract.sol",
  "abi": [
    {
      "inputs": [
        {
          "internalType": "string",
          "name": "_name",
          "type": "string"
        },
        {
          "internalType": "string",
          "name": "_symbol",
          "type": "string"
        },
        {
          "internalType": "string",
          "name": "_uri",
          "type": "string"
        }
      ],
      "stateMutability": "nonpayable",
      "type": "constructor"
    },
    {
      "anonymous": false,
      "inputs": [
        {
          "indexed": true,
          "internalType": "address",
          "name": "account",
          "type": "address"
        },
        {
          "indexed": true,
          "internalType": "address",
          "name": "operator",
          "type": "address"
        },
        {
          "indexed": false,
          "internalType": "bool",
          "name": "approved",
          "type": "bool"
        }
      ],
      "name": "ApprovalForAll",
      "type": "event"
    },
    {
      "anonymous": false,
      "inputs": [
        {
          "indexed": true,
          "internalType": "address",
          "name": "previousOwner",
          "type": "address"
        },
        {
          "indexed": true,
          "internalType": "address",
          "name": "newOwner",
          "type": "address"
        }
      ],
      "name": "OwnershipTransferred",
      "type": "event"
    },
    {
      "anonymous": false,
      "inputs": [
        {
          "indexed": true,
          "internalType": "address",
          "name": "operator",
          "type": "address"
        },
        {
          "indexed": true,
          "internalType": "address",
          "name": "from",
          "type": "address"
        },
        {
          "indexed": true,
          "internalType": "address",
          "name": "to",
          "type": "address"
        },
        {
          "indexed": false,
          "internalType": "uint256[]",
          "name": "ids",
          "type": "uint256[]"
        },
        {
          "indexed": false,
          "internalType": "uint256[]",
          "name": "values",
          "type": "uint256[]"
        }
      ],
      "name": "TransferBatch",
      "type": "event"
    },
    {
      "anonymous": false,
      "inputs": [
        {
          "indexed": true,
          "internalType": "address",
          "name": "operator",
          "type": "address"
        },
        {
          "indexed": true,
          "internalType": "address",
          "name": "from",
          "type": "address"
        },
        {
          "indexed": true,
          "internalType": "address",
          "name": "to",
          "type": "address"
        },
        {
          "indexed": false,
          "internalType": "uint256",
          "name": "id",
          "type": "uint256"
        },
        {
          "indexed": false,
          "internalType": "uint256",
          "name": "value",
          "type": "uint256"
        }
      ],
      "name": "TransferSingle",
      "type": "event"
    },
    {
      "anonymous": false,
      "inputs": [
        {
          "indexed": false,
          "internalType": "string",
          "name": "value",
          "type": "string"
        },
        {
          "indexed": true,
          "internalType": "uint256",
          "name": "id",
          "type": "uint256"
        }
      ],
      "name": "URI",
      "type": "event"
    },
    {
      "inputs": [
        {
          "internalType": "address",
          "name": "account",
          "type": "address"
        },
        {
          "internalType": "uint256",
          "name": "id",
          "type": "uint256"
        }
      ],
      "name": "balanceOf",
      "outputs": [
        {
          "internalType": "uint256",
          "name": "",
          "type": "uint256"
        }
      ],
      "stateMutability": "view",
      "type": "function"
    },
    {
      "inputs": [
        {
          "internalType": "address[]",
          "name": "accounts",
          "type": "address[]"
        },
        {
          "internalType": "uint256[]",
          "name": "ids",
          "type": "uint256[]"
        }
      ],
      "name": "balanceOfBatch",
      "outputs": [
        {
          "internalType": "uint256[]",
          "name": "",
          "type": "uint256[]"
        }
      ],
      "stateMutability": "view",
      "type": "function"
    },
    {
      "inputs": [
        {
          "internalType": "address",
          "name": "owner",
          "type": "address"
        }
      ],
      "name": "getOwnedTokens",
      "outputs": [
        {
          "internalType": "uint256[]",
          "name": "",
          "type": "uint256[]"
        },
        {
          "internalType": "uint256[]",
          "name": "",
          "type": "uint256[]"
        }
      ],
      "stateMutability": "view",
      "type": "function"
    },
    {
      "inputs": [],
      "name": "getTokenIds",
      "outputs": [
        {
          "internalType": "uint256[]",
          "name": "",
          "type": "uint256[]"
        }
      ],
      "stateMutability": "view",
      "type": "function"
    },
    {
      "inputs": [
        {
          "internalType": "uint256",
          "name": "tokenId",
          "type": "uint256"
        }
      ],
      "name": "getTokenURI",
      "outputs": [
        {
          "internalType": "string",
          "name": "",
          "type": "string"
        }
      ],
      "stateMutability": "view",
      "type": "function"
    },
    {
      "inputs": [
        {
          "internalType": "address",
          "name": "account",
          "type": "address"
        },
        {
          "internalType": "address",
          "name": "operator",
          "type": "address"
        }
      ],
      "name": "isApprovedForAll",
      "outputs": [
        {
          "internalType": "bool",
          "name": "",
          "type": "bool"
        }
      ],
      "stateMutability": "view",
      "type": "function"
    },
    {
      "inputs": [
        {
          "internalType": "address",
          "name": "to",
          "type": "address"
        },
        {
          "internalType": "uint256",
          "name": "amount",
          "type": "uint256"
        },
        {
          "internalType": "string",
          "name": "uri",
          "type": "string"
        },
        {
          "internalType": "address",
          "name": "royaltyRecipient",
          "type": "address"
        },
        {
          "internalType": "uint256",
          "name": "royaltyPercentage",
          "type": "uint256"
        }
      ],
      "name": "mintToken",
      "outputs": [],
      "stateMutability": "nonpayable",
      "type": "function"
    },
    {
      "inputs": [],
      "name": "name",
      "outputs": [
        {
          "internalType": "string",
          "name": "",
          "type": "string"
        }
      ],
      "stateMutability": "view",
      "type": "function"
    },
    {
      "inputs": [],
      "name": "owner",
      "outputs": [
        {
          "internalType": "address",
          "name": "",
          "type": "address"
        }
      ],
      "stateMutability": "view",
      "type": "function"
    },
    {
      "inputs": [],
      "name": "renounceOwnership",
      "outputs": [],
      "stateMutability": "nonpayable",
      "type": "function"
    },
    {
      "inputs": [
        {
          "internalType": "uint256",
          "name": "tokenId",
          "type": "uint256"
        },
        {
          "internalType": "uint256",
          "name": "salePrice",
          "type": "uint256"
        }
      ],
      "name": "royaltyInfo",
      "outputs": [
        {
          "internalType": "address",
          "name": "receiver",
          "type": "address"
        },
        {
          "internalType": "uint256",
          "name": "royaltyAmount",
          "type": "uint256"
        }
      ],
      "stateMutability": "view",
      "type": "function"
    },
    {
      "inputs": [
        {
          "internalType": "address",
          "name": "from",
          "type": "address"
        },
        {
          "internalType": "address",
          "name": "to",
          "type": "address"
        },
        {
          "internalType": "uint256[]",
          "name": "ids",
          "type": "uint256[]"
        },
        {
          "internalType": "uint256[]",
          "name": "amounts",
          "type": "uint256[]"
        },
        {
          "internalType": "bytes",
          "name": "data",
          "type": "bytes"
        }
      ],
      "name": "safeBatchTransferFrom",
      "outputs": [],
      "stateMutability": "nonpayable",
      "type": "function"
    },
    {
      "inputs": [
        {
          "internalType": "address",
          "name": "from",
          "type": "address"
        },
        {
          "internalType": "address",
          "name": "to",
          "type": "address"
        },
        {
          "internalType": "uint256",
          "name": "id",
          "type": "uint256"
        },
        {
          "internalType": "uint256",
          "name": "amount",
          "type": "uint256"
        },
        {
          "internalType": "bytes",
          "name": "data",
          "type": "bytes"
        }
      ],
      "name": "safeTransferFrom",
      "outputs": [],
      "stateMutability": "nonpayable",
      "type": "function"
    },
    {
      "inputs": [
        {
          "internalType": "address",
          "name": "operator",
          "type": "address"
        },
        {
          "internalType": "bool",
          "name": "approved",
          "type": "bool"
        }
      ],
      "name": "setApprovalForAll",
      "outputs": [],
      "stateMutability": "nonpayable",
      "type": "function"
    },
    {
      "inputs": [
        {
          "internalType": "bytes4",
          "name": "interfaceId",
          "type": "bytes4"
        }
      ],
      "name": "supportsInterface",
      "outputs": [
        {
          "internalType": "bool",
          "name": "",
          "type": "bool"
        }
      ],
      "stateMutability": "view",
      "type": "function"
    },
    {
      "inputs": [],
      "name": "symbol",
      "outputs": [
        {
          "internalType": "string",
          "name": "",
          "type": "string"
        }
      ],
      "stateMutability": "view",
      "type": "function"
    },
    {
      "inputs": [
        {
          "internalType": "address",
          "name": "newOwner",
          "type": "address"
        }
      ],
      "name": "transferOwnership",
      "outputs": [],
      "stateMutability": "nonpayable",
      "type": "function"
    },
    {
      "inputs": [
        {
          "internalType": "uint256",
          "name": "",
          "type": "uint256"
        }
      ],
      "name": "uri",
      "outputs": [
        {
          "internalType": "string",
          "name": "",
          "type": "string"
        }
      ],
      "stateMutability": "view",
      "type": "function"
    }
  ],
  "bytecode": "0x608060405260006007553480156200001657600080fd5b5060405162003d5038038062003d5083398181016040528101906200003c919062000312565b806200004e816200009c60201b60201c565b506200006f62000063620000b160201b60201c565b620000b960201b60201c565b826004908162000080919062000616565b50816005908162000092919062000616565b50505050620006fd565b8060029081620000ad919062000616565b5050565b600033905090565b6000600360009054906101000a900473ffffffffffffffffffffffffffffffffffffffff16905081600360006101000a81548173ffffffffffffffffffffffffffffffffffffffff021916908373ffffffffffffffffffffffffffffffffffffffff1602179055508173ffffffffffffffffffffffffffffffffffffffff168173ffffffffffffffffffffffffffffffffffffffff167f8be0079c531659141344cd1fd0a4f28419497f9722a3daafe3b4186f6b6457e060405160405180910390a35050565b6000604051905090565b600080fd5b600080fd5b600080fd5b600080fd5b6000601f19601f8301169050919050565b7f4e487b7100000000000000000000000000000000000000000000000000000000600052604160045260246000fd5b620001e8826200019d565b810181811067ffffffffffffffff821117156200020a5762000209620001ae565b5b80604052505050565b60006200021f6200017f565b90506200022d8282620001dd565b919050565b600067ffffffffffffffff82111562000250576200024f620001ae565b5b6200025b826200019d565b9050602081019050919050565b60005b83811015620002885780820151818401526020810190506200026b565b60008484015250505050565b6000620002ab620002a58462000232565b62000213565b905082815260208101848484011115620002ca57620002c962000198565b5b620002d784828562000268565b509392505050565b600082601f830112620002f757620002f662000193565b5b81516200030984826020860162000294565b91505092915050565b6000806000606084860312156200032e576200032d62000189565b5b600084015167ffffffffffffffff8111156200034f576200034e6200018e565b5b6200035d86828701620002df565b935050602084015167ffffffffffffffff8111156200038157620003806200018e565b5b6200038f86828701620002df565b925050604084015167ffffffffffffffff811115620003b357620003b26200018e565b5b620003c186828701620002df565b9150509250925092565b600081519050919050565b7f4e487b7100000000000000000000000000000000000000000000000000000000600052602260045260246000fd5b600060028204905060018216806200041e57607f821691505b602082108103620004345762000433620003d6565b5b50919050565b60008190508160005260206000209050919050565b60006020601f8301049050919050565b600082821b905092915050565b6000600883026200049e7fffffffffffffffffffffffffffffffffffffffffffffffffffffffffffffffff826200045f565b620004aa86836200045f565b95508019841693508086168417925050509392505050565b6000819050919050565b6000819050919050565b6000620004f7620004f1620004eb84620004c2565b620004cc565b620004c2565b9050919050565b6000819050919050565b6200051383620004d6565b6200052b6200052282620004fe565b8484546200046c565b825550505050565b600090565b6200054262000533565b6200054f81848462000508565b505050565b5b8181101562000577576200056b60008262000538565b60018101905062000555565b5050565b601f821115620005c65762000590816200043a565b6200059b846200044f565b81016020851015620005ab578190505b620005c3620005ba856200044f565b83018262000554565b50505b505050565b600082821c905092915050565b6000620005eb60001984600802620005cb565b1980831691505092915050565b6000620006068383620005d8565b9150826002028217905092915050565b6200062182620003cb565b67ffffffffffffffff8111156200063d576200063c620001ae565b5b62000649825462000405565b620006568282856200057b565b600060209050601f8311600181146200068e576000841562000679578287015190505b620006858582620005f8565b865550620006f5565b601f1984166200069e866200043a565b60005b82811015620006c857848901518255600182019150602085019450602081019050620006a1565b86831015620006e85784890151620006e4601f891682620005d8565b8355505b6001600288020188555050505b505050505050565b613643806200070d6000396000f3fe608060405234801561001057600080fd5b50600436106101155760003560e01c806367f718a9116100a2578063a22cb46511610071578063a22cb465146102f5578063d9d6165514610311578063e985e9c514610342578063f242432a14610372578063f2fde38b1461038e57610115565b806367f718a914610291578063715018a6146102af5780638da5cb5b146102b957806395d89b41146102d757610115565b80632a55205a116100e95780632a55205a146101c85780632d82c583146101f95780632eb2c2d6146102155780633bb3a24d146102315780634e1273f41461026157610115565b8062fdd58e1461011a57806301ffc9a71461014a57806306fdde031461017a5780630e89341c14610198575b600080fd5b610134600480360381019061012f9190611e3f565b6103aa565b6040516101419190611e8e565b60405180910390f35b610164600480360381019061015f9190611f01565b610472565b6040516101719190611f49565b60405180910390f35b610182610554565b60405161018f9190611ff4565b60405180910390f35b6101b260048036038101906101ad9190612016565b6105e2565b6040516101bf9190611ff4565b60405180910390f35b6101e260048036038101906101dd9190612043565b610676565b6040516101f0929190612092565b60405180910390f35b610213600480360381019061020e91906121f0565b610728565b005b61022f600480360381019061022a91906123f0565b61087d565b005b61024b60048036038101906102469190612016565b61091e565b6040516102589190611ff4565b60405180910390f35b61027b60048036038101906102769190612582565b6109c3565b60405161028891906126b8565b60405180910390f35b610299610ad6565b6040516102a691906126b8565b60405180910390f35b6102b7610b2e565b005b6102c1610b42565b6040516102ce91906126da565b60405180910390f35b6102df610b6c565b6040516102ec9190611ff4565b60405180910390f35b61030f600480360381019061030a9190612721565b610bfa565b005b61032b60048036038101906103269190612761565b610c10565b60405161033992919061278e565b60405180910390f35b61035c600480360381019061035791906127c5565b610cd7565b6040516103699190611f49565b60405180910390f35b61038c60048036038101906103879190612805565b610d6b565b005b6103a860048036038101906103a39190612761565b610e0c565b005b60008073ffffffffffffffffffffffffffffffffffffffff168373ffffffffffffffffffffffffffffffffffffffff160361041a576040517f08c379a00000000000000000000000000000000000000000000000000000000081526004016104119061290e565b60405180910390fd5b60008083815260200190815260200160002060008473ffffffffffffffffffffffffffffffffffffffff1673ffffffffffffffffffffffffffffffffffffffff16815260200190815260200160002054905092915050565b60007fd9b67a26000000000000000000000000000000000000000000000000000000007bffffffffffffffffffffffffffffffffffffffffffffffffffffffff1916827bffffffffffffffffffffffffffffffffffffffffffffffffffffffff1916148061053d57507f0e89341c000000000000000000000000000000000000000000000000000000007bffffffffffffffffffffffffffffffffffffffffffffffffffffffff1916827bffffffffffffffffffffffffffffffffffffffffffffffffffffffff1916145b8061054d575061054c82610e8f565b5b9050919050565b600480546105619061295d565b80601f016020809104026020016040519081016040528092919081815260200182805461058d9061295d565b80156105da5780601f106105af576101008083540402835291602001916105da565b820191906000526020600020905b8154815290600101906020018083116105bd57829003601f168201915b505050505081565b6060600280546105f19061295d565b80601f016020809104026020016040519081016040528092919081815260200182805461061d9061295d565b801561066a5780601f1061063f5761010080835404028352916020019161066a565b820191906000526020600020905b81548152906001019060200180831161064d57829003601f168201915b50505050509050919050565b6000806000600960008681526020019081526020016000206040518060400160405290816000820160009054906101000a900473ffffffffffffffffffffffffffffffffffffffff1673ffffffffffffffffffffffffffffffffffffffff1673ffffffffffffffffffffffffffffffffffffffff1681526020016001820154815250509050606481602001518561070d91906129bd565b6107179190612a2e565b915080600001519250509250929050565b610730610ef9565b6001600760008282546107439190612a5f565b925050819055506000600754905061076c86828760405180602001604052806000815250610f77565b6107768185611127565b600881908060018154018082558091505060019003906000526020600020016000909190919091505560288211156107e3576040517f08c379a00000000000000000000000000000000000000000000000000000000081526004016107da90612adf565b60405180910390fd5b60405180604001604052808473ffffffffffffffffffffffffffffffffffffffff168152602001838152506009600083815260200190815260200160002060008201518160000160006101000a81548173ffffffffffffffffffffffffffffffffffffffff021916908373ffffffffffffffffffffffffffffffffffffffff16021790555060208201518160010155905050505050505050565b61088561114c565b73ffffffffffffffffffffffffffffffffffffffff168573ffffffffffffffffffffffffffffffffffffffff1614806108cb57506108ca856108c561114c565b610cd7565b5b61090a576040517f08c379a000000000000000000000000000000000000000000000000000000000815260040161090190612b71565b60405180910390fd5b6109178585858585611154565b5050505050565b606060066000838152602001908152602001600020805461093e9061295d565b80601f016020809104026020016040519081016040528092919081815260200182805461096a9061295d565b80156109b75780601f1061098c576101008083540402835291602001916109b7565b820191906000526020600020905b81548152906001019060200180831161099a57829003601f168201915b50505050509050919050565b60608151835114610a09576040517f08c379a0000000000000000000000000000000000000000000000000000000008152600401610a0090612c03565b60405180910390fd5b6000835167ffffffffffffffff811115610a2657610a256120c5565b5b604051908082528060200260200182016040528015610a545781602001602082028036833780820191505090505b50905060005b8451811015610acb57610aa1858281518110610a7957610a78612c23565b5b6020026020010151858381518110610a9457610a93612c23565b5b60200260200101516103aa565b828281518110610ab457610ab3612c23565b5b602002602001018181525050806001019050610a5a565b508091505092915050565b60606008805480602002602001604051908101604052809291908181526020018280548015610b2457602002820191906000526020600020905b815481526020019060010190808311610b10575b5050505050905090565b610b36610ef9565b610b40600061146f565b565b6000600360009054906101000a900473ffffffffffffffffffffffffffffffffffffffff16905090565b60058054610b799061295d565b80601f0160208091040260200160405190810160405280929190818152602001828054610ba59061295d565b8015610bf25780601f10610bc757610100808354040283529160200191610bf2565b820191906000526020600020905b815481529060010190602001808311610bd557829003601f168201915b505050505081565b610c0c610c0561114c565b8383611535565b5050565b6060806000610c1d610ad6565b90506000815167ffffffffffffffff811115610c3c57610c3b6120c5565b5b604051908082528060200260200182016040528015610c6a5781602001602082028036833780820191505090505b50905060005b8251811015610cc957610c9d86848381518110610c9057610c8f612c23565b5b60200260200101516103aa565b828281518110610cb057610caf612c23565b5b6020026020010181815250508080600101915050610c70565b508181935093505050915091565b6000600160008473ffffffffffffffffffffffffffffffffffffffff1673ffffffffffffffffffffffffffffffffffffffff16815260200190815260200160002060008373ffffffffffffffffffffffffffffffffffffffff1673ffffffffffffffffffffffffffffffffffffffff16815260200190815260200160002060009054906101000a900460ff16905092915050565b610d7361114c565b73ffffffffffffffffffffffffffffffffffffffff168573ffffffffffffffffffffffffffffffffffffffff161480610db95750610db885610db361114c565b610cd7565b5b610df8576040517f08c379a0000000000000000000000000000000000000000000000000000000008152600401610def90612b71565b60405180910390fd5b610e0585858585856116a1565b5050505050565b610e14610ef9565b600073ffffffffffffffffffffffffffffffffffffffff168173ffffffffffffffffffffffffffffffffffffffff1603610e83576040517f08c379a0000000000000000000000000000000000000000000000000000000008152600401610e7a90612cc4565b60405180910390fd5b610e8c8161146f565b50565b60007f01ffc9a7000000000000000000000000000000000000000000000000000000007bffffffffffffffffffffffffffffffffffffffffffffffffffffffff1916827bffffffffffffffffffffffffffffffffffffffffffffffffffffffff1916149050919050565b610f0161114c565b73ffffffffffffffffffffffffffffffffffffffff16610f1f610b42565b73ffffffffffffffffffffffffffffffffffffffff1614610f75576040517f08c379a0000000000000000000000000000000000000000000000000000000008152600401610f6c90612d30565b60405180910390fd5b565b600073ffffffffffffffffffffffffffffffffffffffff168473ffffffffffffffffffffffffffffffffffffffff1603610fe6576040517f08c379a0000000000000000000000000000000000000000000000000000000008152600401610fdd90612dc2565b60405180910390fd5b6000610ff061114c565b90506000610ffd8561193c565b9050600061100a8561193c565b905061101b836000898585896119b6565b8460008088815260200190815260200160002060008973ffffffffffffffffffffffffffffffffffffffff1673ffffffffffffffffffffffffffffffffffffffff168152602001908152602001600020600082825461107a9190612a5f565b925050819055508673ffffffffffffffffffffffffffffffffffffffff16600073ffffffffffffffffffffffffffffffffffffffff168473ffffffffffffffffffffffffffffffffffffffff167fc3d58168c5ae7397731d063d5bbf3d657854427343f4c083240f7aacaa2d0f6289896040516110f8929190612de2565b60405180910390a461110f836000898585896119be565b61111e836000898989896119c6565b50505050505050565b806006600084815260200190815260200160002090816111479190612fb7565b505050565b600033905090565b8151835114611198576040517f08c379a000000000000000000000000000000000000000000000000000000000815260040161118f906130fb565b60405180910390fd5b600073ffffffffffffffffffffffffffffffffffffffff168473ffffffffffffffffffffffffffffffffffffffff1603611207576040517f08c379a00000000000000000000000000000000000000000000000000000000081526004016111fe9061318d565b60405180910390fd5b600061121161114c565b90506112218187878787876119b6565b60005b84518110156113cc57600085828151811061124257611241612c23565b5b60200260200101519050600085838151811061126157611260612c23565b5b60200260200101519050600080600084815260200190815260200160002060008b73ffffffffffffffffffffffffffffffffffffffff1673ffffffffffffffffffffffffffffffffffffffff16815260200190815260200160002054905081811015611302576040517f08c379a00000000000000000000000000000000000000000000000000000000081526004016112f99061321f565b60405180910390fd5b81810360008085815260200190815260200160002060008c73ffffffffffffffffffffffffffffffffffffffff1673ffffffffffffffffffffffffffffffffffffffff168152602001908152602001600020819055508160008085815260200190815260200160002060008b73ffffffffffffffffffffffffffffffffffffffff1673ffffffffffffffffffffffffffffffffffffffff16815260200190815260200160002060008282546113b79190612a5f565b92505081905550505050806001019050611224565b508473ffffffffffffffffffffffffffffffffffffffff168673ffffffffffffffffffffffffffffffffffffffff168273ffffffffffffffffffffffffffffffffffffffff167f4a39dc06d4c0dbc64b70af90fd698a233a518aa5d07e595d983b8c0526c8f7fb878760405161144392919061278e565b60405180910390a46114598187878787876119be565b611467818787878787611b9d565b505050505050565b6000600360009054906101000a900473ffffffffffffffffffffffffffffffffffffffff16905081600360006101000a81548173ffffffffffffffffffffffffffffffffffffffff021916908373ffffffffffffffffffffffffffffffffffffffff1602179055508173ffffffffffffffffffffffffffffffffffffffff168173ffffffffffffffffffffffffffffffffffffffff167f8be0079c531659141344cd1fd0a4f28419497f9722a3daafe3b4186f6b6457e060405160405180910390a35050565b8173ffffffffffffffffffffffffffffffffffffffff168373ffffffffffffffffffffffffffffffffffffffff16036115a3576040517f08c379a000000000000000000000000000000000000000000000000000000000815260040161159a906132b1565b60405180910390fd5b80600160008573ffffffffffffffffffffffffffffffffffffffff1673ffffffffffffffffffffffffffffffffffffffff16815260200190815260200160002060008473ffffffffffffffffffffffffffffffffffffffff1673ffffffffffffffffffffffffffffffffffffffff16815260200190815260200160002060006101000a81548160ff0219169083151502179055508173ffffffffffffffffffffffffffffffffffffffff168373ffffffffffffffffffffffffffffffffffffffff167f17307eab39ab6107e8899845ad3d59bd9653f200f220920489ca2b5937696c31836040516116949190611f49565b60405180910390a3505050565b600073ffffffffffffffffffffffffffffffffffffffff168473ffffffffffffffffffffffffffffffffffffffff1603611710576040517f08c379a00000000000000000000000000000000000000000000000000000000081526004016117079061318d565b60405180910390fd5b600061171a61114c565b905060006117278561193c565b905060006117348561193c565b90506117448389898585896119b6565b600080600088815260200190815260200160002060008a73ffffffffffffffffffffffffffffffffffffffff1673ffffffffffffffffffffffffffffffffffffffff168152602001908152602001600020549050858110156117db576040517f08c379a00000000000000000000000000000000000000000000000000000000081526004016117d29061321f565b60405180910390fd5b85810360008089815260200190815260200160002060008b73ffffffffffffffffffffffffffffffffffffffff1673ffffffffffffffffffffffffffffffffffffffff168152602001908152602001600020819055508560008089815260200190815260200160002060008a73ffffffffffffffffffffffffffffffffffffffff1673ffffffffffffffffffffffffffffffffffffffff16815260200190815260200160002060008282546118909190612a5f565b925050819055508773ffffffffffffffffffffffffffffffffffffffff168973ffffffffffffffffffffffffffffffffffffffff168573ffffffffffffffffffffffffffffffffffffffff167fc3d58168c5ae7397731d063d5bbf3d657854427343f4c083240f7aacaa2d0f628a8a60405161190d929190612de2565b60405180910390a4611923848a8a86868a6119be565b611931848a8a8a8a8a6119c6565b505050505050505050565b60606000600167ffffffffffffffff81111561195b5761195a6120c5565b5b6040519080825280602002602001820160405280156119895781602001602082028036833780820191505090505b50905082816000815181106119a1576119a0612c23565b5b60200260200101818152505080915050919050565b505050505050565b505050505050565b6119e58473ffffffffffffffffffffffffffffffffffffffff16611d74565b15611b95578373ffffffffffffffffffffffffffffffffffffffff1663f23a6e6187878686866040518663ffffffff1660e01b8152600401611a2b959493929190613326565b6020604051808303816000875af1925050508015611a6757506040513d601f19601f82011682018060405250810190611a649190613395565b60015b611b0c57611a736133cf565b806308c379a003611acf5750611a876133f1565b80611a925750611ad1565b806040517f08c379a0000000000000000000000000000000000000000000000000000000008152600401611ac69190611ff4565b60405180910390fd5b505b6040517f08c379a0000000000000000000000000000000000000000000000000000000008152600401611b03906134f3565b60405180910390fd5b63f23a6e6160e01b7bffffffffffffffffffffffffffffffffffffffffffffffffffffffff1916817bffffffffffffffffffffffffffffffffffffffffffffffffffffffff191614611b93576040517f08c379a0000000000000000000000000000000000000000000000000000000008152600401611b8a90613585565b60405180910390fd5b505b505050505050565b611bbc8473ffffffffffffffffffffffffffffffffffffffff16611d74565b15611d6c578373ffffffffffffffffffffffffffffffffffffffff1663bc197c8187878686866040518663ffffffff1660e01b8152600401611c029594939291906135a5565b6020604051808303816000875af1925050508015611c3e57506040513d601f19601f82011682018060405250810190611c3b9190613395565b60015b611ce357611c4a6133cf565b806308c379a003611ca65750611c5e6133f1565b80611c695750611ca8565b806040517f08c379a0000000000000000000000000000000000000000000000000000000008152600401611c9d9190611ff4565b60405180910390fd5b505b6040517f08c379a0000000000000000000000000000000000000000000000000000000008152600401611cda906134f3565b60405180910390fd5b63bc197c8160e01b7bffffffffffffffffffffffffffffffffffffffffffffffffffffffff1916817bffffffffffffffffffffffffffffffffffffffffffffffffffffffff191614611d6a576040517f08c379a0000000000000000000000000000000000000000000000000000000008152600401611d6190613585565b60405180910390fd5b505b505050505050565b6000808273ffffffffffffffffffffffffffffffffffffffff163b119050919050565b6000604051905090565b600080fd5b600080fd5b600073ffffffffffffffffffffffffffffffffffffffff82169050919050565b6000611dd682611dab565b9050919050565b611de681611dcb565b8114611df157600080fd5b50565b600081359050611e0381611ddd565b92915050565b6000819050919050565b611e1c81611e09565b8114611e2757600080fd5b50565b600081359050611e3981611e13565b92915050565b60008060408385031215611e5657611e55611da1565b5b6000611e6485828601611df4565b9250506020611e7585828601611e2a565b9150509250929050565b611e8881611e09565b82525050565b6000602082019050611ea36000830184611e7f565b92915050565b60007fffffffff0000000000000000000000000000000000000000000000000000000082169050919050565b611ede81611ea9565b8114611ee957600080fd5b50565b600081359050611efb81611ed5565b92915050565b600060208284031215611f1757611f16611da1565b5b6000611f2584828501611eec565b91505092915050565b60008115159050919050565b611f4381611f2e565b82525050565b6000602082019050611f5e6000830184611f3a565b92915050565b600081519050919050565b600082825260208201905092915050565b60005b83811015611f9e578082015181840152602081019050611f83565b60008484015250505050565b6000601f19601f8301169050919050565b6000611fc682611f64565b611fd08185611f6f565b9350611fe0818560208601611f80565b611fe981611faa565b840191505092915050565b6000602082019050818103600083015261200e8184611fbb565b905092915050565b60006020828403121561202c5761202b611da1565b5b600061203a84828501611e2a565b91505092915050565b6000806040838503121561205a57612059611da1565b5b600061206885828601611e2a565b925050602061207985828601611e2a565b9150509250929050565b61208c81611dcb565b82525050565b60006040820190506120a76000830185612083565b6120b46020830184611e7f565b9392505050565b600080fd5b600080fd5b7f4e487b7100000000000000000000000000000000000000000000000000000000600052604160045260246000fd5b6120fd82611faa565b810181811067ffffffffffffffff8211171561211c5761211b6120c5565b5b80604052505050565b600061212f611d97565b905061213b82826120f4565b919050565b600067ffffffffffffffff82111561215b5761215a6120c5565b5b61216482611faa565b9050602081019050919050565b82818337600083830152505050565b600061219361218e84612140565b612125565b9050828152602081018484840111156121af576121ae6120c0565b5b6121ba848285612171565b509392505050565b600082601f8301126121d7576121d66120bb565b5b81356121e7848260208601612180565b91505092915050565b600080600080600060a0868803121561220c5761220b611da1565b5b600061221a88828901611df4565b955050602061222b88828901611e2a565b945050604086013567ffffffffffffffff81111561224c5761224b611da6565b5b612258888289016121c2565b935050606061226988828901611df4565b925050608061227a88828901611e2a565b9150509295509295909350565b600067ffffffffffffffff8211156122a2576122a16120c5565b5b602082029050602081019050919050565b600080fd5b60006122cb6122c684612287565b612125565b905080838252602082019050602084028301858111156122ee576122ed6122b3565b5b835b8181101561231757806123038882611e2a565b8452602084019350506020810190506122f0565b5050509392505050565b600082601f830112612336576123356120bb565b5b81356123468482602086016122b8565b91505092915050565b600067ffffffffffffffff82111561236a576123696120c5565b5b61237382611faa565b9050602081019050919050565b600061239361238e8461234f565b612125565b9050828152602081018484840111156123af576123ae6120c0565b5b6123ba848285612171565b509392505050565b600082601f8301126123d7576123d66120bb565b5b81356123e7848260208601612380565b91505092915050565b600080600080600060a0868803121561240c5761240b611da1565b5b600061241a88828901611df4565b955050602061242b88828901611df4565b945050604086013567ffffffffffffffff81111561244c5761244b611da6565b5b61245888828901612321565b935050606086013567ffffffffffffffff81111561247957612478611da6565b5b61248588828901612321565b925050608086013567ffffffffffffffff8111156124a6576124a5611da6565b5b6124b2888289016123c2565b9150509295509295909350565b600067ffffffffffffffff8211156124da576124d96120c5565b5b602082029050602081019050919050565b60006124fe6124f9846124bf565b612125565b90508083825260208201905060208402830185811115612521576125206122b3565b5b835b8181101561254a57806125368882611df4565b845260208401935050602081019050612523565b5050509392505050565b600082601f830112612569576125686120bb565b5b81356125798482602086016124eb565b91505092915050565b6000806040838503121561259957612598611da1565b5b600083013567ffffffffffffffff8111156125b7576125b6611da6565b5b6125c385828601612554565b925050602083013567ffffffffffffffff8111156125e4576125e3611da6565b5b6125f085828601612321565b9150509250929050565b600081519050919050565b600082825260208201905092915050565b6000819050602082019050919050565b61262f81611e09565b82525050565b60006126418383612626565b60208301905092915050565b6000602082019050919050565b6000612665826125fa565b61266f8185612605565b935061267a83612616565b8060005b838110156126ab5781516126928882612635565b975061269d8361264d565b92505060018101905061267e565b5085935050505092915050565b600060208201905081810360008301526126d2818461265a565b905092915050565b60006020820190506126ef6000830184612083565b92915050565b6126fe81611f2e565b811461270957600080fd5b50565b60008135905061271b816126f5565b92915050565b6000806040838503121561273857612737611da1565b5b600061274685828601611df4565b92505060206127578582860161270c565b9150509250929050565b60006020828403121561277757612776611da1565b5b600061278584828501611df4565b91505092915050565b600060408201905081810360008301526127a8818561265a565b905081810360208301526127bc818461265a565b90509392505050565b600080604083850312156127dc576127db611da1565b5b60006127ea85828601611df4565b92505060206127fb85828601611df4565b9150509250929050565b600080600080600060a0868803121561282157612820611da1565b5b600061282f88828901611df4565b955050602061284088828901611df4565b945050604061285188828901611e2a565b935050606061286288828901611e2a565b925050608086013567ffffffffffffffff81111561288357612882611da6565b5b61288f888289016123c2565b9150509295509295909350565b7f455243313135353a2061646472657373207a65726f206973206e6f742061207660008201527f616c6964206f776e657200000000000000000000000000000000000000000000602082015250565b60006128f8602a83611f6f565b91506129038261289c565b604082019050919050565b60006020820190508181036000830152612927816128eb565b9050919050565b7f4e487b7100000000000000000000000000000000000000000000000000000000600052602260045260246000fd5b6000600282049050600182168061297557607f821691505b6020821081036129885761298761292e565b5b50919050565b7f4e487b7100000000000000000000000000000000000000000000000000000000600052601160045260246000fd5b60006129c882611e09565b91506129d383611e09565b92508282026129e181611e09565b915082820484148315176129f8576129f761298e565b5b5092915050565b7f4e487b7100000000000000000000000000000000000000000000000000000000600052601260045260246000fd5b6000612a3982611e09565b9150612a4483611e09565b925082612a5457612a536129ff565b5b828204905092915050565b6000612a6a82611e09565b9150612a7583611e09565b9250828201905080821115612a8d57612a8c61298e565b5b92915050565b7f526f79616c747920746f6f206869676800000000000000000000000000000000600082015250565b6000612ac9601083611f6f565b9150612ad482612a93565b602082019050919050565b60006020820190508181036000830152612af881612abc565b9050919050565b7f455243313135353a2063616c6c6572206973206e6f7420746f6b656e206f776e60008201527f6572206f7220617070726f766564000000000000000000000000000000000000602082015250565b6000612b5b602e83611f6f565b9150612b6682612aff565b604082019050919050565b60006020820190508181036000830152612b8a81612b4e565b9050919050565b7f455243313135353a206163636f756e747320616e6420696473206c656e67746860008201527f206d69736d617463680000000000000000000000000000000000000000000000602082015250565b6000612bed602983611f6f565b9150612bf882612b91565b604082019050919050565b60006020820190508181036000830152612c1c81612be0565b9050919050565b7f4e487b7100000000000000000000000000000000000000000000000000000000600052603260045260246000fd5b7f4f776e61626c653a206e6577206f776e657220697320746865207a65726f206160008201527f6464726573730000000000000000000000000000000000000000000000000000602082015250565b6000612cae602683611f6f565b9150612cb982612c52565b604082019050919050565b60006020820190508181036000830152612cdd81612ca1565b9050919050565b7f4f776e61626c653a2063616c6c6572206973206e6f7420746865206f776e6572600082015250565b6000612d1a602083611f6f565b9150612d2582612ce4565b602082019050919050565b60006020820190508181036000830152612d4981612d0d565b9050919050565b7f455243313135353a206d696e7420746f20746865207a65726f2061646472657360008201527f7300000000000000000000000000000000000000000000000000000000000000602082015250565b6000612dac602183611f6f565b9150612db782612d50565b604082019050919050565b60006020820190508181036000830152612ddb81612d9f565b9050919050565b6000604082019050612df76000830185611e7f565b612e046020830184611e7f565b9392505050565b60008190508160005260206000209050919050565b60006020601f8301049050919050565b600082821b905092915050565b600060088302612e6d7fffffffffffffffffffffffffffffffffffffffffffffffffffffffffffffffff82612e30565b612e778683612e30565b95508019841693508086168417925050509392505050565b6000819050919050565b6000612eb4612eaf612eaa84611e09565b612e8f565b611e09565b9050919050565b6000819050919050565b612ece83612e99565b612ee2612eda82612ebb565b848454612e3d565b825550505050565b600090565b612ef7612eea565b612f02818484612ec5565b505050565b5b81811015612f2657612f1b600082612eef565b600181019050612f08565b5050565b601f821115612f6b57612f3c81612e0b565b612f4584612e20565b81016020851015612f54578190505b612f68612f6085612e20565b830182612f07565b50505b505050565b600082821c905092915050565b6000612f8e60001984600802612f70565b1980831691505092915050565b6000612fa78383612f7d565b9150826002028217905092915050565b612fc082611f64565b67ffffffffffffffff811115612fd957612fd86120c5565b5b612fe3825461295d565b612fee828285612f2a565b600060209050601f831160018114613021576000841561300f578287015190505b6130198582612f9b565b865550613081565b601f19841661302f86612e0b565b60005b8281101561305757848901518255600182019150602085019450602081019050613032565b868310156130745784890151613070601f891682612f7d565b8355505b6001600288020188555050505b505050505050565b7f455243313135353a2069647320616e6420616d6f756e7473206c656e6774682060008201527f6d69736d61746368000000000000000000000000000000000000000000000000602082015250565b60006130e5602883611f6f565b91506130f082613089565b604082019050919050565b60006020820190508181036000830152613114816130d8565b9050919050565b7f455243313135353a207472616e7366657220746f20746865207a65726f20616460008201527f6472657373000000000000000000000000000000000000000000000000000000602082015250565b6000613177602583611f6f565b91506131828261311b565b604082019050919050565b600060208201905081810360008301526131a68161316a565b9050919050565b7f455243313135353a20696e73756666696369656e742062616c616e636520666f60008201527f72207472616e7366657200000000000000000000000000000000000000000000602082015250565b6000613209602a83611f6f565b9150613214826131ad565b604082019050919050565b60006020820190508181036000830152613238816131fc565b9050919050565b7f455243313135353a2073657474696e6720617070726f76616c2073746174757360008201527f20666f722073656c660000000000000000000000000000000000000000000000602082015250565b600061329b602983611f6f565b91506132a68261323f565b604082019050919050565b600060208201905081810360008301526132ca8161328e565b9050919050565b600081519050919050565b600082825260208201905092915050565b60006132f8826132d1565b61330281856132dc565b9350613312818560208601611f80565b61331b81611faa565b840191505092915050565b600060a08201905061333b6000830188612083565b6133486020830187612083565b6133556040830186611e7f565b6133626060830185611e7f565b818103608083015261337481846132ed565b90509695505050505050565b60008151905061338f81611ed5565b92915050565b6000602082840312156133ab576133aa611da1565b5b60006133b984828501613380565b91505092915050565b60008160e01c9050919050565b600060033d11156133ee5760046000803e6133eb6000516133c2565b90505b90565b600060443d1061347e57613403611d97565b60043d036004823e80513d602482011167ffffffffffffffff8211171561342b57505061347e565b808201805167ffffffffffffffff811115613449575050505061347e565b80602083010160043d03850181111561346657505050505061347e565b613475826020018501866120f4565b82955050505050505b90565b7f455243313135353a207472616e7366657220746f206e6f6e2d4552433131353560008201527f526563656976657220696d706c656d656e746572000000000000000000000000602082015250565b60006134dd603483611f6f565b91506134e882613481565b604082019050919050565b6000602082019050818103600083015261350c816134d0565b9050919050565b7f455243313135353a204552433131353552656365697665722072656a6563746560008201527f6420746f6b656e73000000000000000000000000000000000000000000000000602082015250565b600061356f602883611f6f565b915061357a82613513565b604082019050919050565b6000602082019050818103600083015261359e81613562565b9050919050565b600060a0820190506135ba6000830188612083565b6135c76020830187612083565b81810360408301526135d9818661265a565b905081810360608301526135ed818561265a565b9050818103608083015261360181846132ed565b9050969550505050505056fea2646970667358221220de356ffa59ca367c76930b220303ef13750478642827aa3fd0184c9af02c7b6664736f6c63430008180033",
  "linkReferences": {},
  "deployedLinkReferences": {}
}