{
  "_format": "hh-sol-artifact-1",
  "contractName": "MarketplaceAndFactoryContract",
  "sourceName": "contracts/MarketplaceAndFactoryContract.sol",
  "abi": [
    {
      "anonymous": false,
      "inputs": [
        {
          "indexed": true,
          "internalType": "address",
          "name": "owner",
          "type": "address"
        },
        {
          "indexed": false,
          "internalType": "address",
          "name": "collectionAddress",
          "type": "address"
        },
        {
          "indexed": false,
          "internalType": "string",
          "name": "name",
          "type": "string"
        },
        {
          "indexed": false,
          "internalType": "string",
          "name": "symbol",
          "type": "string"
        }
      ],
      "name": "CollectionCreated",
      "type": "event"
    },
    {
      "anonymous": false,
      "inputs": [
        {
          "indexed": true,
          "internalType": "uint256",
          "name": "listingId",
          "type": "uint256"
        },
        {
          "indexed": true,
          "internalType": "address",
          "name": "seller",
          "type": "address"
        },
        {
          "indexed": false,
          "internalType": "address",
          "name": "collectionAddress",
          "type": "address"
        },
        {
          "indexed": false,
          "internalType": "uint256",
          "name": "tokenId",
          "type": "uint256"
        },
        {
          "indexed": false,
          "internalType": "uint256",
          "name": "quantity",
          "type": "uint256"
        },
        {
          "indexed": false,
          "internalType": "uint256",
          "name": "price",
          "type": "uint256"
        }
      ],
      "name": "ListingCreated",
      "type": "event"
    },
    {
      "anonymous": false,
      "inputs": [
        {
          "indexed": true,
          "internalType": "uint256",
          "name": "listingId",
          "type": "uint256"
        },
        {
          "indexed": true,
          "internalType": "address",
          "name": "buyer",
          "type": "address"
        },
        {
          "indexed": false,
          "internalType": "uint256",
          "name": "quantity",
          "type": "uint256"
        }
      ],
      "name": "Purchase",
      "type": "event"
    },
    {
      "inputs": [
        {
          "internalType": "uint256",
          "name": "listingId",
          "type": "uint256"
        },
        {
          "internalType": "uint256",
          "name": "quantity",
          "type": "uint256"
        },
        {
          "internalType": "address",
          "name": "destinationCollection",
          "type": "address"
        }
      ],
      "name": "buyToken",
      "outputs": [],
      "stateMutability": "payable",
      "type": "function"
    },
    {
      "inputs": [
        {
          "internalType": "uint256",
          "name": "",
          "type": "uint256"
        }
      ],
      "name": "collections",
      "outputs": [
        {
          "internalType": "address",
          "name": "",
          "type": "address"
        }
      ],
      "stateMutability": "view",
      "type": "function"
    },
    {
      "inputs": [
        {
          "internalType": "string",
          "name": "name",
          "type": "string"
        },
        {
          "internalType": "string",
          "name": "symbol",
          "type": "string"
        },
        {
          "internalType": "string",
          "name": "uri",
          "type": "string"
        }
      ],
      "name": "createCollection",
      "outputs": [],
      "stateMutability": "nonpayable",
      "type": "function"
    },
    {
      "inputs": [],
      "name": "getAllCollections",
      "outputs": [
        {
          "internalType": "address[]",
          "name": "",
          "type": "address[]"
        }
      ],
      "stateMutability": "view",
      "type": "function"
    },
    {
      "inputs": [],
      "name": "getAllListedTokens",
      "outputs": [
        {
          "internalType": "uint256[]",
          "name": "listingIds",
          "type": "uint256[]"
        },
        {
          "internalType": "address[]",
          "name": "sellers",
          "type": "address[]"
        },
        {
          "internalType": "address[]",
          "name": "collectionAddresses",
          "type": "address[]"
        },
        {
          "internalType": "uint256[]",
          "name": "tokenIds",
          "type": "uint256[]"
        },
        {
          "internalType": "uint256[]",
          "name": "prices",
          "type": "uint256[]"
        },
        {
          "internalType": "uint256[]",
          "name": "quantities",
          "type": "uint256[]"
        }
      ],
      "stateMutability": "view",
      "type": "function"
    },
    {
      "inputs": [
        {
          "internalType": "address",
          "name": "owner",
          "type": "address"
        }
      ],
      "name": "getCollectionsByOwner",
      "outputs": [
        {
          "internalType": "address[]",
          "name": "",
          "type": "address[]"
        }
      ],
      "stateMutability": "view",
      "type": "function"
    },
    {
      "inputs": [
        {
          "internalType": "address",
          "name": "collectionAddress",
          "type": "address"
        },
        {
          "internalType": "address",
          "name": "owner",
          "type": "address"
        }
      ],
      "name": "getOwnedTokens",
      "outputs": [
        {
          "internalType": "uint256[]",
          "name": "",
          "type": "uint256[]"
        },
        {
          "internalType": "uint256[]",
          "name": "",
          "type": "uint256[]"
        }
      ],
      "stateMutability": "view",
      "type": "function"
    },
    {
      "inputs": [
        {
          "internalType": "address",
          "name": "collectionAddress",
          "type": "address"
        },
        {
          "internalType": "uint256",
          "name": "tokenId",
          "type": "uint256"
        },
        {
          "internalType": "uint256",
          "name": "quantity",
          "type": "uint256"
        },
        {
          "internalType": "uint256",
          "name": "price",
          "type": "uint256"
        }
      ],
      "name": "listToken",
      "outputs": [],
      "stateMutability": "nonpayable",
      "type": "function"
    },
    {
      "inputs": [
        {
          "internalType": "uint256",
          "name": "",
          "type": "uint256"
        }
      ],
      "name": "listings",
      "outputs": [
        {
          "internalType": "address",
          "name": "seller",
          "type": "address"
        },
        {
          "internalType": "address",
          "name": "collectionAddress",
          "type": "address"
        },
        {
          "internalType": "uint256",
          "name": "tokenId",
          "type": "uint256"
        },
        {
          "internalType": "uint256",
          "name": "price",
          "type": "uint256"
        },
        {
          "internalType": "uint256",
          "name": "quantity",
          "type": "uint256"
        }
      ],
      "stateMutability": "view",
      "type": "function"
    }
  ],
  "bytecode": "0x6080604052600060045534801561001557600080fd5b506001600081905550615d098061002d6000396000f3fe608060405260043610620000925760003560e01c8063d387c4c11162000061578063d387c4c1146200014a578063de74e57b146200018f578063e178d60c14620001d7578063ece86c21146200021b578063fdbda0ec14620002495762000092565b806321466eb514620000975780636804a95814620000b7578063a50d998314620000e7578063b43d901d146200011c575b600080fd5b620000b56004803603810190620000af9190620013cf565b6200028d565b005b348015620000c457600080fd5b50620000cf62000632565b604051620000de9190620014f9565b60405180910390f35b348015620000f457600080fd5b50620000ff620006c2565b6040516200011396959493929190620015eb565b60405180910390f35b3480156200012957600080fd5b5062000148600480360381019062000142919062001682565b62000a7e565b005b3480156200015757600080fd5b50620001766004803603810190620001709190620016f4565b62000d5f565b604051620001869291906200173b565b60405180910390f35b3480156200019c57600080fd5b50620001bb6004803603810190620001b5919062001776565b62000f1f565b604051620001ce959493929190620017ca565b60405180910390f35b348015620001e457600080fd5b50620002036004803603810190620001fd919062001827565b62000f95565b604051620002129190620014f9565b60405180910390f35b3480156200022857600080fd5b50620002476004803603810190620002419190620019bb565b62001064565b005b3480156200025657600080fd5b506200027560048036038101906200026f919062001776565b62001271565b60405162000284919062001a74565b60405180910390f35b62000297620012b1565b6000600360008581526020019081526020016000209050828160030154620002c0919062001ac0565b34101562000305576040517f08c379a0000000000000000000000000000000000000000000000000000000008152600401620002fc9062001b6c565b60405180910390fd5b82816004015410156200034f576040517f08c379a0000000000000000000000000000000000000000000000000000000008152600401620003469062001bde565b60405180910390fd5b63f23a6e6160e01b7bffffffffffffffffffffffffffffffffffffffffffffffffffffffff19168273ffffffffffffffffffffffffffffffffffffffff1663f23a6e61338460000160009054906101000a900473ffffffffffffffffffffffffffffffffffffffff168560020154886040518563ffffffff1660e01b8152600401620003df949392919062001c3b565b6020604051808303816000875af1158015620003ff573d6000803e3d6000fd5b505050506040513d601f19601f8201168201806040525081019062000425919062001cfa565b7bffffffffffffffffffffffffffffffffffffffffffffffffffffffff19161462000487576040517f08c379a00000000000000000000000000000000000000000000000000000000081526004016200047e9062001da2565b60405180910390fd5b8060010160009054906101000a900473ffffffffffffffffffffffffffffffffffffffff1673ffffffffffffffffffffffffffffffffffffffff1663f242432a8260000160009054906101000a900473ffffffffffffffffffffffffffffffffffffffff16848460020154876040518563ffffffff1660e01b815260040162000514949392919062001c3b565b600060405180830381600087803b1580156200052f57600080fd5b505af115801562000544573d6000803e3d6000fd5b505050508060000160009054906101000a900473ffffffffffffffffffffffffffffffffffffffff1673ffffffffffffffffffffffffffffffffffffffff166108fc349081150290604051600060405180830381858888f19350505050158015620005b3573d6000803e3d6000fd5b5082816004016000828254620005ca919062001dc4565b925050819055503373ffffffffffffffffffffffffffffffffffffffff16847f9b9322562a425e363b0c2f80fc966e9c4f48ac3b5c2d1527d75829c8f505ec96856040516200061a919062001dff565b60405180910390a3506200062d62001303565b505050565b60606001805480602002602001604051908101604052809291908181526020018280548015620006b857602002820191906000526020600020905b8160009054906101000a900473ffffffffffffffffffffffffffffffffffffffff1673ffffffffffffffffffffffffffffffffffffffff16815260200190600101908083116200066d575b5050505050905090565b606080606080606080600060045490508067ffffffffffffffff811115620006ef57620006ee62001874565b5b6040519080825280602002602001820160405280156200071e5781602001602082028036833780820191505090505b5096508067ffffffffffffffff8111156200073e576200073d62001874565b5b6040519080825280602002602001820160405280156200076d5781602001602082028036833780820191505090505b5095508067ffffffffffffffff8111156200078d576200078c62001874565b5b604051908082528060200260200182016040528015620007bc5781602001602082028036833780820191505090505b5094508067ffffffffffffffff811115620007dc57620007db62001874565b5b6040519080825280602002602001820160405280156200080b5781602001602082028036833780820191505090505b5093508067ffffffffffffffff8111156200082b576200082a62001874565b5b6040519080825280602002602001820160405280156200085a5781602001602082028036833780820191505090505b5092508067ffffffffffffffff8111156200087a576200087962001874565b5b604051908082528060200260200182016040528015620008a95781602001602082028036833780820191505090505b50915060005b8181101562000a74576000600182620008c9919062001e1c565b90506000600360008381526020019081526020016000209050818a8481518110620008f957620008f862001e57565b5b6020026020010181815250508060000160009054906101000a900473ffffffffffffffffffffffffffffffffffffffff1689848151811062000940576200093f62001e57565b5b602002602001019073ffffffffffffffffffffffffffffffffffffffff16908173ffffffffffffffffffffffffffffffffffffffff16815250508060010160009054906101000a900473ffffffffffffffffffffffffffffffffffffffff16888481518110620009b557620009b462001e57565b5b602002602001019073ffffffffffffffffffffffffffffffffffffffff16908173ffffffffffffffffffffffffffffffffffffffff1681525050806002015487848151811062000a0a5762000a0962001e57565b5b602002602001018181525050806003015486848151811062000a315762000a3062001e57565b5b602002602001018181525050806004015485848151811062000a585762000a5762001e57565b5b60200260200101818152505050508080600101915050620008af565b5050909192939495565b6000821162000ac4576040517f08c379a000000000000000000000000000000000000000000000000000000000815260040162000abb9062001efc565b60405180910390fd5b6000811162000b0a576040517f08c379a000000000000000000000000000000000000000000000000000000000815260040162000b019062001f6e565b60405180910390fd5b818473ffffffffffffffffffffffffffffffffffffffff1662fdd58e33866040518363ffffffff1660e01b815260040162000b4792919062001f90565b602060405180830381865afa15801562000b65573d6000803e3d6000fd5b505050506040513d601f19601f8201168201806040525081019062000b8b919062001fd4565b101562000bcf576040517f08c379a000000000000000000000000000000000000000000000000000000000815260040162000bc6906200207c565b60405180910390fd5b6004600081548092919062000be4906200209e565b91905055506040518060a001604052803373ffffffffffffffffffffffffffffffffffffffff1681526020018573ffffffffffffffffffffffffffffffffffffffff1681526020018481526020018281526020018381525060036000600454815260200190815260200160002060008201518160000160006101000a81548173ffffffffffffffffffffffffffffffffffffffff021916908373ffffffffffffffffffffffffffffffffffffffff16021790555060208201518160010160006101000a81548173ffffffffffffffffffffffffffffffffffffffff021916908373ffffffffffffffffffffffffffffffffffffffff1602179055506040820151816002015560608201518160030155608082015181600401559050503373ffffffffffffffffffffffffffffffffffffffff166004547fceefd288ffab0a6f307ce9214d4c1fc1acd67f807eaaf54806e3a1158128db148686868660405162000d519493929190620020eb565b60405180910390a350505050565b606080600084905060008173ffffffffffffffffffffffffffffffffffffffff166367f718a96040518163ffffffff1660e01b8152600401600060405180830381865afa15801562000db5573d6000803e3d6000fd5b505050506040513d6000823e3d601f19601f8201168201806040525081019062000de0919062002213565b90506000815167ffffffffffffffff81111562000e025762000e0162001874565b5b60405190808252806020026020018201604052801562000e315781602001602082028036833780820191505090505b50905060005b825181101562000f0e578373ffffffffffffffffffffffffffffffffffffffff1662fdd58e8885848151811062000e735762000e7262001e57565b5b60200260200101516040518363ffffffff1660e01b815260040162000e9a92919062001f90565b602060405180830381865afa15801562000eb8573d6000803e3d6000fd5b505050506040513d601f19601f8201168201806040525081019062000ede919062001fd4565b82828151811062000ef45762000ef362001e57565b5b602002602001018181525050808060010191505062000e37565b508181945094505050509250929050565b60036020528060005260406000206000915090508060000160009054906101000a900473ffffffffffffffffffffffffffffffffffffffff16908060010160009054906101000a900473ffffffffffffffffffffffffffffffffffffffff16908060020154908060030154908060040154905085565b6060600260008373ffffffffffffffffffffffffffffffffffffffff1673ffffffffffffffffffffffffffffffffffffffff1681526020019081526020016000208054806020026020016040519081016040528092919081815260200182805480156200105857602002820191906000526020600020905b8160009054906101000a900473ffffffffffffffffffffffffffffffffffffffff1673ffffffffffffffffffffffffffffffffffffffff16815260200190600101908083116200100d575b50505050509050919050565b600083838360405162001077906200130d565b6200108593929190620022dc565b604051809103906000f080158015620010a2573d6000803e3d6000fd5b5090508073ffffffffffffffffffffffffffffffffffffffff1663f2fde38b336040518263ffffffff1660e01b8152600401620010e0919062001a74565b600060405180830381600087803b158015620010fb57600080fd5b505af115801562001110573d6000803e3d6000fd5b505050506001819080600181540180825580915050600190039060005260206000200160009091909190916101000a81548173ffffffffffffffffffffffffffffffffffffffff021916908373ffffffffffffffffffffffffffffffffffffffff160217905550600260003373ffffffffffffffffffffffffffffffffffffffff1673ffffffffffffffffffffffffffffffffffffffff168152602001908152602001600020819080600181540180825580915050600190039060005260206000200160009091909190916101000a81548173ffffffffffffffffffffffffffffffffffffffff021916908373ffffffffffffffffffffffffffffffffffffffff1602179055503373ffffffffffffffffffffffffffffffffffffffff167f5fead977881b23a0dbf2f905699203f29cefea57a576d2d4f412523191258e8482868660405162001263939291906200232e565b60405180910390a250505050565b600181815481106200128257600080fd5b906000526020600020016000915054906101000a900473ffffffffffffffffffffffffffffffffffffffff1681565b600260005403620012f9576040517f08c379a0000000000000000000000000000000000000000000000000000000008152600401620012f090620023c9565b60405180910390fd5b6002600081905550565b6001600081905550565b6138e880620023ec83390190565b6000604051905090565b600080fd5b600080fd5b6000819050919050565b62001344816200132f565b81146200135057600080fd5b50565b600081359050620013648162001339565b92915050565b600073ffffffffffffffffffffffffffffffffffffffff82169050919050565b600062001397826200136a565b9050919050565b620013a9816200138a565b8114620013b557600080fd5b50565b600081359050620013c9816200139e565b92915050565b600080600060608486031215620013eb57620013ea62001325565b5b6000620013fb8682870162001353565b93505060206200140e8682870162001353565b92505060406200142186828701620013b8565b9150509250925092565b600081519050919050565b600082825260208201905092915050565b6000819050602082019050919050565b62001462816200138a565b82525050565b600062001476838362001457565b60208301905092915050565b6000602082019050919050565b60006200149c826200142b565b620014a8818562001436565b9350620014b58362001447565b8060005b83811015620014ec578151620014d0888262001468565b9750620014dd8362001482565b925050600181019050620014b9565b5085935050505092915050565b600060208201905081810360008301526200151581846200148f565b905092915050565b600081519050919050565b600082825260208201905092915050565b6000819050602082019050919050565b62001554816200132f565b82525050565b600062001568838362001549565b60208301905092915050565b6000602082019050919050565b60006200158e826200151d565b6200159a818562001528565b9350620015a78362001539565b8060005b83811015620015de578151620015c288826200155a565b9750620015cf8362001574565b925050600181019050620015ab565b5085935050505092915050565b600060c082019050818103600083015262001607818962001581565b905081810360208301526200161d81886200148f565b905081810360408301526200163381876200148f565b9050818103606083015262001649818662001581565b905081810360808301526200165f818562001581565b905081810360a083015262001675818462001581565b9050979650505050505050565b600080600080608085870312156200169f576200169e62001325565b5b6000620016af87828801620013b8565b9450506020620016c28782880162001353565b9350506040620016d58782880162001353565b9250506060620016e88782880162001353565b91505092959194509250565b600080604083850312156200170e576200170d62001325565b5b60006200171e85828601620013b8565b92505060206200173185828601620013b8565b9150509250929050565b6000604082019050818103600083015262001757818562001581565b905081810360208301526200176d818462001581565b90509392505050565b6000602082840312156200178f576200178e62001325565b5b60006200179f8482850162001353565b91505092915050565b620017b3816200138a565b82525050565b620017c4816200132f565b82525050565b600060a082019050620017e16000830188620017a8565b620017f06020830187620017a8565b620017ff6040830186620017b9565b6200180e6060830185620017b9565b6200181d6080830184620017b9565b9695505050505050565b60006020828403121562001840576200183f62001325565b5b60006200185084828501620013b8565b91505092915050565b600080fd5b600080fd5b6000601f19601f8301169050919050565b7f4e487b7100000000000000000000000000000000000000000000000000000000600052604160045260246000fd5b620018ae8262001863565b810181811067ffffffffffffffff82111715620018d057620018cf62001874565b5b80604052505050565b6000620018e56200131b565b9050620018f38282620018a3565b919050565b600067ffffffffffffffff82111562001916576200191562001874565b5b620019218262001863565b9050602081019050919050565b82818337600083830152505050565b6000620019546200194e84620018f8565b620018d9565b9050828152602081018484840111156200197357620019726200185e565b5b620019808482856200192e565b509392505050565b600082601f830112620019a0576200199f62001859565b5b8135620019b28482602086016200193d565b91505092915050565b600080600060608486031215620019d757620019d662001325565b5b600084013567ffffffffffffffff811115620019f857620019f76200132a565b5b62001a068682870162001988565b935050602084013567ffffffffffffffff81111562001a2a5762001a296200132a565b5b62001a388682870162001988565b925050604084013567ffffffffffffffff81111562001a5c5762001a5b6200132a565b5b62001a6a8682870162001988565b9150509250925092565b600060208201905062001a8b6000830184620017a8565b92915050565b7f4e487b7100000000000000000000000000000000000000000000000000000000600052601160045260246000fd5b600062001acd826200132f565b915062001ada836200132f565b925082820262001aea816200132f565b9150828204841483151762001b045762001b0362001a91565b5b5092915050565b600082825260208201905092915050565b7f496e73756666696369656e74207061796d656e74000000000000000000000000600082015250565b600062001b5460148362001b0b565b915062001b618262001b1c565b602082019050919050565b6000602082019050818103600083015262001b878162001b45565b9050919050565b7f4e6f7420656e6f75676820746f6b656e7320617661696c61626c650000000000600082015250565b600062001bc6601b8362001b0b565b915062001bd38262001b8e565b602082019050919050565b6000602082019050818103600083015262001bf98162001bb7565b9050919050565b600082825260208201905092915050565b50565b600062001c2360008362001c00565b915062001c308262001c11565b600082019050919050565b600060a08201905062001c526000830187620017a8565b62001c616020830186620017a8565b62001c706040830185620017b9565b62001c7f6060830184620017b9565b818103608083015262001c928162001c14565b905095945050505050565b60007fffffffff0000000000000000000000000000000000000000000000000000000082169050919050565b62001cd48162001c9d565b811462001ce057600080fd5b50565b60008151905062001cf48162001cc9565b92915050565b60006020828403121562001d135762001d1262001325565b5b600062001d238482850162001ce3565b91505092915050565b7f5472616e7366657220746f2064657374696e6174696f6e20636f6c6c6563746960008201527f6f6e206661696c65640000000000000000000000000000000000000000000000602082015250565b600062001d8a60298362001b0b565b915062001d978262001d2c565b604082019050919050565b6000602082019050818103600083015262001dbd8162001d7b565b9050919050565b600062001dd1826200132f565b915062001dde836200132f565b925082820390508181111562001df95762001df862001a91565b5b92915050565b600060208201905062001e166000830184620017b9565b92915050565b600062001e29826200132f565b915062001e36836200132f565b925082820190508082111562001e515762001e5062001a91565b5b92915050565b7f4e487b7100000000000000000000000000000000000000000000000000000000600052603260045260246000fd5b7f5175616e74697479206d7573742062652067726561746572207468616e207a6560008201527f726f000000000000000000000000000000000000000000000000000000000000602082015250565b600062001ee460228362001b0b565b915062001ef18262001e86565b604082019050919050565b6000602082019050818103600083015262001f178162001ed5565b9050919050565b7f5072696365206d75737420626520737065636966696564000000000000000000600082015250565b600062001f5660178362001b0b565b915062001f638262001f1e565b602082019050919050565b6000602082019050818103600083015262001f898162001f47565b9050919050565b600060408201905062001fa76000830185620017a8565b62001fb66020830184620017b9565b9392505050565b60008151905062001fce8162001339565b92915050565b60006020828403121562001fed5762001fec62001325565b5b600062001ffd8482850162001fbd565b91505092915050565b7f496e73756666696369656e7420746f6b656e2062616c616e636520746f206c6960008201527f7374000000000000000000000000000000000000000000000000000000000000602082015250565b60006200206460228362001b0b565b9150620020718262002006565b604082019050919050565b60006020820190508181036000830152620020978162002055565b9050919050565b6000620020ab826200132f565b91507fffffffffffffffffffffffffffffffffffffffffffffffffffffffffffffffff8203620020e057620020df62001a91565b5b600182019050919050565b6000608082019050620021026000830187620017a8565b620021116020830186620017b9565b620021206040830185620017b9565b6200212f6060830184620017b9565b95945050505050565b600067ffffffffffffffff82111562002156576200215562001874565b5b602082029050602081019050919050565b600080fd5b6000620021836200217d8462002138565b620018d9565b90508083825260208201905060208402830185811115620021a957620021a862002167565b5b835b81811015620021d65780620021c1888262001fbd565b845260208401935050602081019050620021ab565b5050509392505050565b600082601f830112620021f857620021f762001859565b5b81516200220a8482602086016200216c565b91505092915050565b6000602082840312156200222c576200222b62001325565b5b600082015167ffffffffffffffff8111156200224d576200224c6200132a565b5b6200225b84828501620021e0565b91505092915050565b600081519050919050565b60005b838110156200228f57808201518184015260208101905062002272565b60008484015250505050565b6000620022a88262002264565b620022b4818562001b0b565b9350620022c68185602086016200226f565b620022d18162001863565b840191505092915050565b60006060820190508181036000830152620022f881866200229b565b905081810360208301526200230e81856200229b565b905081810360408301526200232481846200229b565b9050949350505050565b6000606082019050620023456000830186620017a8565b81810360208301526200235981856200229b565b905081810360408301526200236f81846200229b565b9050949350505050565b7f5265656e7472616e637947756172643a207265656e7472616e742063616c6c00600082015250565b6000620023b1601f8362001b0b565b9150620023be8262002379565b602082019050919050565b60006020820190508181036000830152620023e481620023a2565b905091905056fe608060405260006007553480156200001657600080fd5b50604051620038e8380380620038e883398181016040528101906200003c919062000312565b806200004e816200009c60201b60201c565b506200006f62000063620000b160201b60201c565b620000b960201b60201c565b826004908162000080919062000616565b50816005908162000092919062000616565b50505050620006fd565b8060029081620000ad919062000616565b5050565b600033905090565b6000600360009054906101000a900473ffffffffffffffffffffffffffffffffffffffff16905081600360006101000a81548173ffffffffffffffffffffffffffffffffffffffff021916908373ffffffffffffffffffffffffffffffffffffffff1602179055508173ffffffffffffffffffffffffffffffffffffffff168173ffffffffffffffffffffffffffffffffffffffff167f8be0079c531659141344cd1fd0a4f28419497f9722a3daafe3b4186f6b6457e060405160405180910390a35050565b6000604051905090565b600080fd5b600080fd5b600080fd5b600080fd5b6000601f19601f8301169050919050565b7f4e487b7100000000000000000000000000000000000000000000000000000000600052604160045260246000fd5b620001e8826200019d565b810181811067ffffffffffffffff821117156200020a5762000209620001ae565b5b80604052505050565b60006200021f6200017f565b90506200022d8282620001dd565b919050565b600067ffffffffffffffff82111562000250576200024f620001ae565b5b6200025b826200019d565b9050602081019050919050565b60005b83811015620002885780820151818401526020810190506200026b565b60008484015250505050565b6000620002ab620002a58462000232565b62000213565b905082815260208101848484011115620002ca57620002c962000198565b5b620002d784828562000268565b509392505050565b600082601f830112620002f757620002f662000193565b5b81516200030984826020860162000294565b91505092915050565b6000806000606084860312156200032e576200032d62000189565b5b600084015167ffffffffffffffff8111156200034f576200034e6200018e565b5b6200035d86828701620002df565b935050602084015167ffffffffffffffff8111156200038157620003806200018e565b5b6200038f86828701620002df565b925050604084015167ffffffffffffffff811115620003b357620003b26200018e565b5b620003c186828701620002df565b9150509250925092565b600081519050919050565b7f4e487b7100000000000000000000000000000000000000000000000000000000600052602260045260246000fd5b600060028204905060018216806200041e57607f821691505b602082108103620004345762000433620003d6565b5b50919050565b60008190508160005260206000209050919050565b60006020601f8301049050919050565b600082821b905092915050565b6000600883026200049e7fffffffffffffffffffffffffffffffffffffffffffffffffffffffffffffffff826200045f565b620004aa86836200045f565b95508019841693508086168417925050509392505050565b6000819050919050565b6000819050919050565b6000620004f7620004f1620004eb84620004c2565b620004cc565b620004c2565b9050919050565b6000819050919050565b6200051383620004d6565b6200052b6200052282620004fe565b8484546200046c565b825550505050565b600090565b6200054262000533565b6200054f81848462000508565b505050565b5b8181101562000577576200056b60008262000538565b60018101905062000555565b5050565b601f821115620005c65762000590816200043a565b6200059b846200044f565b81016020851015620005ab578190505b620005c3620005ba856200044f565b83018262000554565b50505b505050565b600082821c905092915050565b6000620005eb60001984600802620005cb565b1980831691505092915050565b6000620006068383620005d8565b9150826002028217905092915050565b6200062182620003cb565b67ffffffffffffffff8111156200063d576200063c620001ae565b5b62000649825462000405565b620006568282856200057b565b600060209050601f8311600181146200068e576000841562000679578287015190505b620006858582620005f8565b865550620006f5565b601f1984166200069e866200043a565b60005b82811015620006c857848901518255600182019150602085019450602081019050620006a1565b86831015620006e85784890151620006e4601f891682620005d8565b8355505b6001600288020188555050505b505050505050565b6131db806200070d6000396000f3fe608060405234801561001057600080fd5b50600436106100ff5760003560e01c8063715018a611610097578063e985e9c511610066578063e985e9c5146102ae578063f242432a146102de578063f2fde38b146102fa578063f76e8ba914610316576100ff565b8063715018a61461024c5780638da5cb5b1461025657806395d89b4114610274578063a22cb46514610292576100ff565b80632eb2c2d6116100d35780632eb2c2d6146101b25780633bb3a24d146101ce5780634e1273f4146101fe57806367f718a91461022e576100ff565b8062fdd58e1461010457806301ffc9a71461013457806306fdde03146101645780630e89341c14610182575b600080fd5b61011e60048036038101906101199190611b76565b610332565b60405161012b9190611bc5565b60405180910390f35b61014e60048036038101906101499190611c38565b6103fa565b60405161015b9190611c80565b60405180910390f35b61016c6104dc565b6040516101799190611d2b565b60405180910390f35b61019c60048036038101906101979190611d4d565b61056a565b6040516101a99190611d2b565b60405180910390f35b6101cc60048036038101906101c79190611f77565b6105fe565b005b6101e860048036038101906101e39190611d4d565b61069f565b6040516101f59190611d2b565b60405180910390f35b61021860048036038101906102139190612109565b610744565b604051610225919061223f565b60405180910390f35b610236610857565b604051610243919061223f565b60405180910390f35b6102546108af565b005b61025e6108c3565b60405161026b9190612270565b60405180910390f35b61027c6108ed565b6040516102899190611d2b565b60405180910390f35b6102ac60048036038101906102a791906122b7565b61097b565b005b6102c860048036038101906102c391906122f7565b610991565b6040516102d59190611c80565b60405180910390f35b6102f860048036038101906102f39190612337565b610a25565b005b610314600480360381019061030f91906123ce565b610ac6565b005b610330600480360381019061032b919061249c565b610b49565b005b60008073ffffffffffffffffffffffffffffffffffffffff168373ffffffffffffffffffffffffffffffffffffffff16036103a2576040517f08c379a00000000000000000000000000000000000000000000000000000000081526004016103999061257d565b60405180910390fd5b60008083815260200190815260200160002060008473ffffffffffffffffffffffffffffffffffffffff1673ffffffffffffffffffffffffffffffffffffffff16815260200190815260200160002054905092915050565b60007fd9b67a26000000000000000000000000000000000000000000000000000000007bffffffffffffffffffffffffffffffffffffffffffffffffffffffff1916827bffffffffffffffffffffffffffffffffffffffffffffffffffffffff191614806104c557507f0e89341c000000000000000000000000000000000000000000000000000000007bffffffffffffffffffffffffffffffffffffffffffffffffffffffff1916827bffffffffffffffffffffffffffffffffffffffffffffffffffffffff1916145b806104d557506104d482610bc6565b5b9050919050565b600480546104e9906125cc565b80601f0160208091040260200160405190810160405280929190818152602001828054610515906125cc565b80156105625780601f1061053757610100808354040283529160200191610562565b820191906000526020600020905b81548152906001019060200180831161054557829003601f168201915b505050505081565b606060028054610579906125cc565b80601f01602080910402602001604051908101604052809291908181526020018280546105a5906125cc565b80156105f25780601f106105c7576101008083540402835291602001916105f2565b820191906000526020600020905b8154815290600101906020018083116105d557829003601f168201915b50505050509050919050565b610606610c30565b73ffffffffffffffffffffffffffffffffffffffff168573ffffffffffffffffffffffffffffffffffffffff16148061064c575061064b85610646610c30565b610991565b5b61068b576040517f08c379a00000000000000000000000000000000000000000000000000000000081526004016106829061266f565b60405180910390fd5b6106988585858585610c38565b5050505050565b60606006600083815260200190815260200160002080546106bf906125cc565b80601f01602080910402602001604051908101604052809291908181526020018280546106eb906125cc565b80156107385780601f1061070d57610100808354040283529160200191610738565b820191906000526020600020905b81548152906001019060200180831161071b57829003601f168201915b50505050509050919050565b6060815183511461078a576040517f08c379a000000000000000000000000000000000000000000000000000000000815260040161078190612701565b60405180910390fd5b6000835167ffffffffffffffff8111156107a7576107a6611d7f565b5b6040519080825280602002602001820160405280156107d55781602001602082028036833780820191505090505b50905060005b845181101561084c576108228582815181106107fa576107f9612721565b5b602002602001015185838151811061081557610814612721565b5b6020026020010151610332565b82828151811061083557610834612721565b5b6020026020010181815250508060010190506107db565b508091505092915050565b606060088054806020026020016040519081016040528092919081815260200182805480156108a557602002820191906000526020600020905b815481526020019060010190808311610891575b5050505050905090565b6108b7610f53565b6108c16000610fd1565b565b6000600360009054906101000a900473ffffffffffffffffffffffffffffffffffffffff16905090565b600580546108fa906125cc565b80601f0160208091040260200160405190810160405280929190818152602001828054610926906125cc565b80156109735780601f1061094857610100808354040283529160200191610973565b820191906000526020600020905b81548152906001019060200180831161095657829003601f168201915b505050505081565b61098d610986610c30565b8383611097565b5050565b6000600160008473ffffffffffffffffffffffffffffffffffffffff1673ffffffffffffffffffffffffffffffffffffffff16815260200190815260200160002060008373ffffffffffffffffffffffffffffffffffffffff1673ffffffffffffffffffffffffffffffffffffffff16815260200190815260200160002060009054906101000a900460ff16905092915050565b610a2d610c30565b73ffffffffffffffffffffffffffffffffffffffff168573ffffffffffffffffffffffffffffffffffffffff161480610a735750610a7285610a6d610c30565b610991565b5b610ab2576040517f08c379a0000000000000000000000000000000000000000000000000000000008152600401610aa99061266f565b60405180910390fd5b610abf8585858585611203565b5050505050565b610ace610f53565b600073ffffffffffffffffffffffffffffffffffffffff168173ffffffffffffffffffffffffffffffffffffffff1603610b3d576040517f08c379a0000000000000000000000000000000000000000000000000000000008152600401610b34906127c2565b60405180910390fd5b610b4681610fd1565b50565b610b51610f53565b600160076000828254610b649190612811565b9250508190555060006007549050610b8d8482856040518060200160405280600081525061149e565b610b97818361164e565b600881908060018154018082558091505060019003906000526020600020016000909190919091505550505050565b60007f01ffc9a7000000000000000000000000000000000000000000000000000000007bffffffffffffffffffffffffffffffffffffffffffffffffffffffff1916827bffffffffffffffffffffffffffffffffffffffffffffffffffffffff1916149050919050565b600033905090565b8151835114610c7c576040517f08c379a0000000000000000000000000000000000000000000000000000000008152600401610c73906128b7565b60405180910390fd5b600073ffffffffffffffffffffffffffffffffffffffff168473ffffffffffffffffffffffffffffffffffffffff1603610ceb576040517f08c379a0000000000000000000000000000000000000000000000000000000008152600401610ce290612949565b60405180910390fd5b6000610cf5610c30565b9050610d05818787878787611673565b60005b8451811015610eb0576000858281518110610d2657610d25612721565b5b602002602001015190506000858381518110610d4557610d44612721565b5b60200260200101519050600080600084815260200190815260200160002060008b73ffffffffffffffffffffffffffffffffffffffff1673ffffffffffffffffffffffffffffffffffffffff16815260200190815260200160002054905081811015610de6576040517f08c379a0000000000000000000000000000000000000000000000000000000008152600401610ddd906129db565b60405180910390fd5b81810360008085815260200190815260200160002060008c73ffffffffffffffffffffffffffffffffffffffff1673ffffffffffffffffffffffffffffffffffffffff168152602001908152602001600020819055508160008085815260200190815260200160002060008b73ffffffffffffffffffffffffffffffffffffffff1673ffffffffffffffffffffffffffffffffffffffff1681526020019081526020016000206000828254610e9b9190612811565b92505081905550505050806001019050610d08565b508473ffffffffffffffffffffffffffffffffffffffff168673ffffffffffffffffffffffffffffffffffffffff168273ffffffffffffffffffffffffffffffffffffffff167f4a39dc06d4c0dbc64b70af90fd698a233a518aa5d07e595d983b8c0526c8f7fb8787604051610f279291906129fb565b60405180910390a4610f3d81878787878761167b565b610f4b818787878787611683565b505050505050565b610f5b610c30565b73ffffffffffffffffffffffffffffffffffffffff16610f796108c3565b73ffffffffffffffffffffffffffffffffffffffff1614610fcf576040517f08c379a0000000000000000000000000000000000000000000000000000000008152600401610fc690612a7e565b60405180910390fd5b565b6000600360009054906101000a900473ffffffffffffffffffffffffffffffffffffffff16905081600360006101000a81548173ffffffffffffffffffffffffffffffffffffffff021916908373ffffffffffffffffffffffffffffffffffffffff1602179055508173ffffffffffffffffffffffffffffffffffffffff168173ffffffffffffffffffffffffffffffffffffffff167f8be0079c531659141344cd1fd0a4f28419497f9722a3daafe3b4186f6b6457e060405160405180910390a35050565b8173ffffffffffffffffffffffffffffffffffffffff168373ffffffffffffffffffffffffffffffffffffffff1603611105576040517f08c379a00000000000000000000000000000000000000000000000000000000081526004016110fc90612b10565b60405180910390fd5b80600160008573ffffffffffffffffffffffffffffffffffffffff1673ffffffffffffffffffffffffffffffffffffffff16815260200190815260200160002060008473ffffffffffffffffffffffffffffffffffffffff1673ffffffffffffffffffffffffffffffffffffffff16815260200190815260200160002060006101000a81548160ff0219169083151502179055508173ffffffffffffffffffffffffffffffffffffffff168373ffffffffffffffffffffffffffffffffffffffff167f17307eab39ab6107e8899845ad3d59bd9653f200f220920489ca2b5937696c31836040516111f69190611c80565b60405180910390a3505050565b600073ffffffffffffffffffffffffffffffffffffffff168473ffffffffffffffffffffffffffffffffffffffff1603611272576040517f08c379a000000000000000000000000000000000000000000000000000000000815260040161126990612949565b60405180910390fd5b600061127c610c30565b905060006112898561185a565b905060006112968561185a565b90506112a6838989858589611673565b600080600088815260200190815260200160002060008a73ffffffffffffffffffffffffffffffffffffffff1673ffffffffffffffffffffffffffffffffffffffff1681526020019081526020016000205490508581101561133d576040517f08c379a0000000000000000000000000000000000000000000000000000000008152600401611334906129db565b60405180910390fd5b85810360008089815260200190815260200160002060008b73ffffffffffffffffffffffffffffffffffffffff1673ffffffffffffffffffffffffffffffffffffffff168152602001908152602001600020819055508560008089815260200190815260200160002060008a73ffffffffffffffffffffffffffffffffffffffff1673ffffffffffffffffffffffffffffffffffffffff16815260200190815260200160002060008282546113f29190612811565b925050819055508773ffffffffffffffffffffffffffffffffffffffff168973ffffffffffffffffffffffffffffffffffffffff168573ffffffffffffffffffffffffffffffffffffffff167fc3d58168c5ae7397731d063d5bbf3d657854427343f4c083240f7aacaa2d0f628a8a60405161146f929190612b30565b60405180910390a4611485848a8a86868a61167b565b611493848a8a8a8a8a6118d4565b505050505050505050565b600073ffffffffffffffffffffffffffffffffffffffff168473ffffffffffffffffffffffffffffffffffffffff160361150d576040517f08c379a000000000000000000000000000000000000000000000000000000000815260040161150490612bcb565b60405180910390fd5b6000611517610c30565b905060006115248561185a565b905060006115318561185a565b905061154283600089858589611673565b8460008088815260200190815260200160002060008973ffffffffffffffffffffffffffffffffffffffff1673ffffffffffffffffffffffffffffffffffffffff16815260200190815260200160002060008282546115a19190612811565b925050819055508673ffffffffffffffffffffffffffffffffffffffff16600073ffffffffffffffffffffffffffffffffffffffff168473ffffffffffffffffffffffffffffffffffffffff167fc3d58168c5ae7397731d063d5bbf3d657854427343f4c083240f7aacaa2d0f62898960405161161f929190612b30565b60405180910390a46116368360008985858961167b565b611645836000898989896118d4565b50505050505050565b8060066000848152602001908152602001600020908161166e9190612d97565b505050565b505050505050565b505050505050565b6116a28473ffffffffffffffffffffffffffffffffffffffff16611aab565b15611852578373ffffffffffffffffffffffffffffffffffffffff1663bc197c8187878686866040518663ffffffff1660e01b81526004016116e8959493929190612ebe565b6020604051808303816000875af192505050801561172457506040513d601f19601f820116820180604052508101906117219190612f3b565b60015b6117c957611730612f75565b806308c379a00361178c5750611744612f97565b8061174f575061178e565b806040517f08c379a00000000000000000000000000000000000000000000000000000000081526004016117839190611d2b565b60405180910390fd5b505b6040517f08c379a00000000000000000000000000000000000000000000000000000000081526004016117c090613099565b60405180910390fd5b63bc197c8160e01b7bffffffffffffffffffffffffffffffffffffffffffffffffffffffff1916817bffffffffffffffffffffffffffffffffffffffffffffffffffffffff191614611850576040517f08c379a00000000000000000000000000000000000000000000000000000000081526004016118479061312b565b60405180910390fd5b505b505050505050565b60606000600167ffffffffffffffff81111561187957611878611d7f565b5b6040519080825280602002602001820160405280156118a75781602001602082028036833780820191505090505b50905082816000815181106118bf576118be612721565b5b60200260200101818152505080915050919050565b6118f38473ffffffffffffffffffffffffffffffffffffffff16611aab565b15611aa3578373ffffffffffffffffffffffffffffffffffffffff1663f23a6e6187878686866040518663ffffffff1660e01b815260040161193995949392919061314b565b6020604051808303816000875af192505050801561197557506040513d601f19601f820116820180604052508101906119729190612f3b565b60015b611a1a57611981612f75565b806308c379a0036119dd5750611995612f97565b806119a057506119df565b806040517f08c379a00000000000000000000000000000000000000000000000000000000081526004016119d49190611d2b565b60405180910390fd5b505b6040517f08c379a0000000000000000000000000000000000000000000000000000000008152600401611a1190613099565b60405180910390fd5b63f23a6e6160e01b7bffffffffffffffffffffffffffffffffffffffffffffffffffffffff1916817bffffffffffffffffffffffffffffffffffffffffffffffffffffffff191614611aa1576040517f08c379a0000000000000000000000000000000000000000000000000000000008152600401611a989061312b565b60405180910390fd5b505b505050505050565b6000808273ffffffffffffffffffffffffffffffffffffffff163b119050919050565b6000604051905090565b600080fd5b600080fd5b600073ffffffffffffffffffffffffffffffffffffffff82169050919050565b6000611b0d82611ae2565b9050919050565b611b1d81611b02565b8114611b2857600080fd5b50565b600081359050611b3a81611b14565b92915050565b6000819050919050565b611b5381611b40565b8114611b5e57600080fd5b50565b600081359050611b7081611b4a565b92915050565b60008060408385031215611b8d57611b8c611ad8565b5b6000611b9b85828601611b2b565b9250506020611bac85828601611b61565b9150509250929050565b611bbf81611b40565b82525050565b6000602082019050611bda6000830184611bb6565b92915050565b60007fffffffff0000000000000000000000000000000000000000000000000000000082169050919050565b611c1581611be0565b8114611c2057600080fd5b50565b600081359050611c3281611c0c565b92915050565b600060208284031215611c4e57611c4d611ad8565b5b6000611c5c84828501611c23565b91505092915050565b60008115159050919050565b611c7a81611c65565b82525050565b6000602082019050611c956000830184611c71565b92915050565b600081519050919050565b600082825260208201905092915050565b60005b83811015611cd5578082015181840152602081019050611cba565b60008484015250505050565b6000601f19601f8301169050919050565b6000611cfd82611c9b565b611d078185611ca6565b9350611d17818560208601611cb7565b611d2081611ce1565b840191505092915050565b60006020820190508181036000830152611d458184611cf2565b905092915050565b600060208284031215611d6357611d62611ad8565b5b6000611d7184828501611b61565b91505092915050565b600080fd5b7f4e487b7100000000000000000000000000000000000000000000000000000000600052604160045260246000fd5b611db782611ce1565b810181811067ffffffffffffffff82111715611dd657611dd5611d7f565b5b80604052505050565b6000611de9611ace565b9050611df58282611dae565b919050565b600067ffffffffffffffff821115611e1557611e14611d7f565b5b602082029050602081019050919050565b600080fd5b6000611e3e611e3984611dfa565b611ddf565b90508083825260208201905060208402830185811115611e6157611e60611e26565b5b835b81811015611e8a5780611e768882611b61565b845260208401935050602081019050611e63565b5050509392505050565b600082601f830112611ea957611ea8611d7a565b5b8135611eb9848260208601611e2b565b91505092915050565b600080fd5b600067ffffffffffffffff821115611ee257611ee1611d7f565b5b611eeb82611ce1565b9050602081019050919050565b82818337600083830152505050565b6000611f1a611f1584611ec7565b611ddf565b905082815260208101848484011115611f3657611f35611ec2565b5b611f41848285611ef8565b509392505050565b600082601f830112611f5e57611f5d611d7a565b5b8135611f6e848260208601611f07565b91505092915050565b600080600080600060a08688031215611f9357611f92611ad8565b5b6000611fa188828901611b2b565b9550506020611fb288828901611b2b565b945050604086013567ffffffffffffffff811115611fd357611fd2611add565b5b611fdf88828901611e94565b935050606086013567ffffffffffffffff81111561200057611fff611add565b5b61200c88828901611e94565b925050608086013567ffffffffffffffff81111561202d5761202c611add565b5b61203988828901611f49565b9150509295509295909350565b600067ffffffffffffffff82111561206157612060611d7f565b5b602082029050602081019050919050565b600061208561208084612046565b611ddf565b905080838252602082019050602084028301858111156120a8576120a7611e26565b5b835b818110156120d157806120bd8882611b2b565b8452602084019350506020810190506120aa565b5050509392505050565b600082601f8301126120f0576120ef611d7a565b5b8135612100848260208601612072565b91505092915050565b600080604083850312156121205761211f611ad8565b5b600083013567ffffffffffffffff81111561213e5761213d611add565b5b61214a858286016120db565b925050602083013567ffffffffffffffff81111561216b5761216a611add565b5b61217785828601611e94565b9150509250929050565b600081519050919050565b600082825260208201905092915050565b6000819050602082019050919050565b6121b681611b40565b82525050565b60006121c883836121ad565b60208301905092915050565b6000602082019050919050565b60006121ec82612181565b6121f6818561218c565b93506122018361219d565b8060005b8381101561223257815161221988826121bc565b9750612224836121d4565b925050600181019050612205565b5085935050505092915050565b6000602082019050818103600083015261225981846121e1565b905092915050565b61226a81611b02565b82525050565b60006020820190506122856000830184612261565b92915050565b61229481611c65565b811461229f57600080fd5b50565b6000813590506122b18161228b565b92915050565b600080604083850312156122ce576122cd611ad8565b5b60006122dc85828601611b2b565b92505060206122ed858286016122a2565b9150509250929050565b6000806040838503121561230e5761230d611ad8565b5b600061231c85828601611b2b565b925050602061232d85828601611b2b565b9150509250929050565b600080600080600060a0868803121561235357612352611ad8565b5b600061236188828901611b2b565b955050602061237288828901611b2b565b945050604061238388828901611b61565b935050606061239488828901611b61565b925050608086013567ffffffffffffffff8111156123b5576123b4611add565b5b6123c188828901611f49565b9150509295509295909350565b6000602082840312156123e4576123e3611ad8565b5b60006123f284828501611b2b565b91505092915050565b600067ffffffffffffffff82111561241657612415611d7f565b5b61241f82611ce1565b9050602081019050919050565b600061243f61243a846123fb565b611ddf565b90508281526020810184848401111561245b5761245a611ec2565b5b612466848285611ef8565b509392505050565b600082601f83011261248357612482611d7a565b5b813561249384826020860161242c565b91505092915050565b6000806000606084860312156124b5576124b4611ad8565b5b60006124c386828701611b2b565b93505060206124d486828701611b61565b925050604084013567ffffffffffffffff8111156124f5576124f4611add565b5b6125018682870161246e565b9150509250925092565b7f455243313135353a2061646472657373207a65726f206973206e6f742061207660008201527f616c6964206f776e657200000000000000000000000000000000000000000000602082015250565b6000612567602a83611ca6565b91506125728261250b565b604082019050919050565b600060208201905081810360008301526125968161255a565b9050919050565b7f4e487b7100000000000000000000000000000000000000000000000000000000600052602260045260246000fd5b600060028204905060018216806125e457607f821691505b6020821081036125f7576125f661259d565b5b50919050565b7f455243313135353a2063616c6c6572206973206e6f7420746f6b656e206f776e60008201527f6572206f7220617070726f766564000000000000000000000000000000000000602082015250565b6000612659602e83611ca6565b9150612664826125fd565b604082019050919050565b600060208201905081810360008301526126888161264c565b9050919050565b7f455243313135353a206163636f756e747320616e6420696473206c656e67746860008201527f206d69736d617463680000000000000000000000000000000000000000000000602082015250565b60006126eb602983611ca6565b91506126f68261268f565b604082019050919050565b6000602082019050818103600083015261271a816126de565b9050919050565b7f4e487b7100000000000000000000000000000000000000000000000000000000600052603260045260246000fd5b7f4f776e61626c653a206e6577206f776e657220697320746865207a65726f206160008201527f6464726573730000000000000000000000000000000000000000000000000000602082015250565b60006127ac602683611ca6565b91506127b782612750565b604082019050919050565b600060208201905081810360008301526127db8161279f565b9050919050565b7f4e487b7100000000000000000000000000000000000000000000000000000000600052601160045260246000fd5b600061281c82611b40565b915061282783611b40565b925082820190508082111561283f5761283e6127e2565b5b92915050565b7f455243313135353a2069647320616e6420616d6f756e7473206c656e6774682060008201527f6d69736d61746368000000000000000000000000000000000000000000000000602082015250565b60006128a1602883611ca6565b91506128ac82612845565b604082019050919050565b600060208201905081810360008301526128d081612894565b9050919050565b7f455243313135353a207472616e7366657220746f20746865207a65726f20616460008201527f6472657373000000000000000000000000000000000000000000000000000000602082015250565b6000612933602583611ca6565b915061293e826128d7565b604082019050919050565b6000602082019050818103600083015261296281612926565b9050919050565b7f455243313135353a20696e73756666696369656e742062616c616e636520666f60008201527f72207472616e7366657200000000000000000000000000000000000000000000602082015250565b60006129c5602a83611ca6565b91506129d082612969565b604082019050919050565b600060208201905081810360008301526129f4816129b8565b9050919050565b60006040820190508181036000830152612a1581856121e1565b90508181036020830152612a2981846121e1565b90509392505050565b7f4f776e61626c653a2063616c6c6572206973206e6f7420746865206f776e6572600082015250565b6000612a68602083611ca6565b9150612a7382612a32565b602082019050919050565b60006020820190508181036000830152612a9781612a5b565b9050919050565b7f455243313135353a2073657474696e6720617070726f76616c2073746174757360008201527f20666f722073656c660000000000000000000000000000000000000000000000602082015250565b6000612afa602983611ca6565b9150612b0582612a9e565b604082019050919050565b60006020820190508181036000830152612b2981612aed565b9050919050565b6000604082019050612b456000830185611bb6565b612b526020830184611bb6565b9392505050565b7f455243313135353a206d696e7420746f20746865207a65726f2061646472657360008201527f7300000000000000000000000000000000000000000000000000000000000000602082015250565b6000612bb5602183611ca6565b9150612bc082612b59565b604082019050919050565b60006020820190508181036000830152612be481612ba8565b9050919050565b60008190508160005260206000209050919050565b60006020601f8301049050919050565b600082821b905092915050565b600060088302612c4d7fffffffffffffffffffffffffffffffffffffffffffffffffffffffffffffffff82612c10565b612c578683612c10565b95508019841693508086168417925050509392505050565b6000819050919050565b6000612c94612c8f612c8a84611b40565b612c6f565b611b40565b9050919050565b6000819050919050565b612cae83612c79565b612cc2612cba82612c9b565b848454612c1d565b825550505050565b600090565b612cd7612cca565b612ce2818484612ca5565b505050565b5b81811015612d0657612cfb600082612ccf565b600181019050612ce8565b5050565b601f821115612d4b57612d1c81612beb565b612d2584612c00565b81016020851015612d34578190505b612d48612d4085612c00565b830182612ce7565b50505b505050565b600082821c905092915050565b6000612d6e60001984600802612d50565b1980831691505092915050565b6000612d878383612d5d565b9150826002028217905092915050565b612da082611c9b565b67ffffffffffffffff811115612db957612db8611d7f565b5b612dc382546125cc565b612dce828285612d0a565b600060209050601f831160018114612e015760008415612def578287015190505b612df98582612d7b565b865550612e61565b601f198416612e0f86612beb565b60005b82811015612e3757848901518255600182019150602085019450602081019050612e12565b86831015612e545784890151612e50601f891682612d5d565b8355505b6001600288020188555050505b505050505050565b600081519050919050565b600082825260208201905092915050565b6000612e9082612e69565b612e9a8185612e74565b9350612eaa818560208601611cb7565b612eb381611ce1565b840191505092915050565b600060a082019050612ed36000830188612261565b612ee06020830187612261565b8181036040830152612ef281866121e1565b90508181036060830152612f0681856121e1565b90508181036080830152612f1a8184612e85565b90509695505050505050565b600081519050612f3581611c0c565b92915050565b600060208284031215612f5157612f50611ad8565b5b6000612f5f84828501612f26565b91505092915050565b60008160e01c9050919050565b600060033d1115612f945760046000803e612f91600051612f68565b90505b90565b600060443d1061302457612fa9611ace565b60043d036004823e80513d602482011167ffffffffffffffff82111715612fd1575050613024565b808201805167ffffffffffffffff811115612fef5750505050613024565b80602083010160043d03850181111561300c575050505050613024565b61301b82602001850186611dae565b82955050505050505b90565b7f455243313135353a207472616e7366657220746f206e6f6e2d4552433131353560008201527f526563656976657220696d706c656d656e746572000000000000000000000000602082015250565b6000613083603483611ca6565b915061308e82613027565b604082019050919050565b600060208201905081810360008301526130b281613076565b9050919050565b7f455243313135353a204552433131353552656365697665722072656a6563746560008201527f6420746f6b656e73000000000000000000000000000000000000000000000000602082015250565b6000613115602883611ca6565b9150613120826130b9565b604082019050919050565b6000602082019050818103600083015261314481613108565b9050919050565b600060a0820190506131606000830188612261565b61316d6020830187612261565b61317a6040830186611bb6565b6131876060830185611bb6565b81810360808301526131998184612e85565b9050969550505050505056fea2646970667358221220e2fe5fe42c2df2cea30b9b15152a4bd9bf960c483ac67aa66f141bc3a887f0ff64736f6c63430008180033a264697066735822122084c0f9088160b6edb369da05196e49d5d2147c21a580c541140e7734d9882b6e64736f6c63430008180033",
  "linkReferences": {},
  "deployedLinkReferences": {}
}